:10002E00436865636B205349343433322E2E2E0DC4
:10003E000A004445564943455F545950453A2030CD
:10004E007825782E0D0A000D0A0044455649434581
:10005E005F56455253494F4E3A20307825782E0D33
:10006E000A004445564943455F5354415455533A4B
:10007E002061742069646C65206D6F64652E0D0AB5
:10008E00004445564943455F5354415455533A2015
:10009E006174205258206D6F64652E0D0A00444520
:1000AE00564943455F5354415455533A2061742089
:1000BE005458206D6F64652E0D0A00437279737467
:1000CE00616C204F7363696C6C61746F72204C6F3E
:1000DE0061642043617061636974616E63653A2087
:1000EE0025780D0A0053493434333220494F2049C4
:1000FE006E69742E2E2E2E2E2E0D0A00494F20497B
:10010E006E697420636F6D706C657465642E0D0A74
:10011E0000534934343332206973206E6F74206675
:10012E006F756E642E2E2E2E2E2E0D0A0053493410
:10013E00343332204750494F496E697420636F6DD6
:10014E00706C6574652C636F6E6669672064657686
:10015E006963652E2E2E2E2E2E0D0A00436F6E66AF
:10016E0069672052462E2E2E2E2E2E0D0A00534932
:10017E0034343332496E697420636F6D706C6574FC
:10018E00652E0D0A005349343433325F53657420A3
:10019E0052784D6F64652E2E2E2E2E2E0D0A005384
:1001AE0049343433325F5365742054784D6F64652F
:1001BE002E2E2E2E2E2E0D0A005349343433325F3E
:1001CE005365742049646C654D6F64652E2E2E2E1A
:1001DE002E2E0D0A005349343433325F53656E644C
:1001EE00204649464F20646174612E2E2E2E0D0A34
:1001FE00002072657620496E746572727570740D8A
:10020E000A002073656E6420496E74657272757093
:10021E00740D0A006D6F646520726567697374658D
:05022E00723A0D0A0008
:100BBF00D3EF9400EE64809480400F7D817C14DC31
:0A0BCF00FEDDFAEF1F70E91E80E65C
:010BD90022F9
:070D3800C2CAD2CBD2B222E5
:090B4100900050EFF07D017F0EE1
:100B4A00900036EDF0C2CBEF4480FF120CE9900022
:090B5A0036E0FF120CE9D2CB22B7
:070C550090004FEFF07F0457
:0C0C5C00C2CB120CE97FFF120CE9D2CBD6
:010C68002269
:1003D4007BFF7A00792E120CA5E4FF120C5C9000CE
:1003E40031EFF07BFF7A007940120CA5900031E0E8
:1003F400FF120A147BFF7A007955120CA590003184
:10040400E0640860037F01227F01120C5C900031DC
:10041400EFF07BFF7A007958120CA5900031E0FFD1
:10042400120A147BFF7A007955120CA57F02120C74
:100434005C900031EFF0540F70087BFF7A00797004
:100444008022900031E0540FFFBF01087BFF7A0047
:10045400798F8010900031E0540FFFBF02097BFFB9
:100464007A0079AC120CA57F09120C5C900031EF74
:10047400F07BFF7A0079C9120CA5900031E0FF12DD
:0D0484000A147BFF7A007955120CA57F0049
:010491002248
:100233007D537F75120B4A7D4B7F76120B4AE4FD8B
:100243007F77120B4A7D097F6E120B4A7DD57F6F34
:10025300120B4A7D2C7F70120B4A7D807F58120B44
:100263004A7D1F7F6D120B4A7D207F72120B4A7DE0
:100273002C7F1C120B4A7D417F20120B4A7D607F2D
:1002830021120B4A7D277F22120B4A7D527F2312B4
:100293000B4AE4FD7F24120B4A7D047F25120B4A8F
:1002A3007D407F1D120B4A7D0A7F1E120B4A7D0F74
:1002B3007F2A120B4A7D037F1F120B4A7D607F69E1
:1002C300120B4A7D0C7F34120B4A7D2A7F35120BA9
:1002D3004A7D027F33120B4A7D2D7F36120B4A7DF6
:1002E300D47F37120B4A7D8D7F30120B4AE4FD7F9A
:1002F30032120B4A7D637F71120B4A7DB47F090270
:020303000B4AA3
:100492007BFF7A0079F3120CA5120D387BFF7A01EB
:1004A200790A120CA57F147E0080131203D4EF6028
:1004B200127BFF7A01791F120CA57FF47E01120BC9
:1004C200BF80E87DCA7F0B120B4A7DCA7F0C120BDC
:1004D2004A7DCA7F0D120B4A7F0A7E00120BBF7B38
:1004E200FF7A01793B120CA57F03120C5C120C55AA
:1004F200900050EFF07D807F07120B4A7F147E0040
:10050200120BBF7F03120C5C120C55900050EFF0DF
:100512007BFF7A01796A120CA51202337DFF7F05F7
:10052200120B4A7DFF7F06120B4A7F03120C5C12EC
:100532000C55900050EFF07D077F05120B4AE4FD49
:0E0542007F06120B4A7BFF7A01797C020CA522
:100BDA007F03120C5C120C55120B417D057F071224
:0B0BEA000B4A7BFF7A017993020CA5F7
:100AF9007F03120C5C120C55900050EFF07D027FC1
:100B09000E120B4A7D097F07120B4A7BFF7A017986
:040B1900AD020CA578
:100BF5007F03120C5C120C55120B417D017F07120D
:0B0C05000B4A7BFF7A0179C7020CA5A7
:1007F000900032EBF0A3EAF0A3E9F0900031EFF0C3
:01080000FDFA
:100801007F3E120B4AE4900035F0900031E0FF90FA
:100811000035E0FEC3EF6480F8EE648098502590C7
:100821000032E0FBA3E0FAA3E0F9EEFF3395E08F9D
:1008310082F58312031EFD7F7F120B4A900035E083
:1008410004F080C6120AF97BFF7A0179E3020CA554
:100675007F03120C5C120C55900050EFF090004F68
:10068500E030E15B7BFF7A0179FF120CA57F4B120D
:100695000C5C90002FEFF0BF0C2EE490002EF09034
:1006A500002FE0FF90002EE0C39F501C7F7F120CAF
:1006B5005C90002EE02411F582E43400F583EFF020
:1006C50090002EE004F080D77D027F08120B4AE4EB
:1006D500FD7F08120B4A120BDA90000F7401F0909F
:1006E500004FE030E20C7BFF7A027910120CA51264
:0206F5000BDA1E
:0106F70022E0
:100B1D007F07120C5C900055EFF07BFF7A02792273
:100B2D00120CA5900055E0FF120A147BFF7A007994
:040B3D0055020CA5AC
:0B0D1C004E4F2E003A0D0A000D0A0099
:1008AD0048001D0000000000000000480025020265
:0608BD0002020202020229
:0100220022BB
:060C2900C2C37F017E0042
:100C2F00EF1FAC0670011E4C600512002280F122EE
:060B6300D2C37F017E00F9
:100B6900EF1FAC0670011E4C600E1200221200220B
:090B790012002212002280E82281
:100C1000D3EF9400EE9400400F7D817C14DCFEDD68
:080C2000FAEF1F70EB1E80E8E3
:010C280022A9
:100AA900E4FDD2C37F01FE120B69C2C37F647E00DD
:100AB900120B69D2C37F0C7E00120B69A2C3E43307
:080AC900FD7F587E00020B695D
:100C6900C2C3120B63A2C3E433FD7F047E00120BDF
:030C790069AF055B
:010C7C002255
:100CB800C2C3EF24FF92C37F057E00120B69D2C323
:010CC8002209
:100B82007B08120C29EDC313FD120B6330C304ED75
:0E0B92004480FD7F0A7E00120B69DBE6AF0592
:010BA0002232
:020BA100AD079E
:100BA3007B08120C29ED1392C37F0A7E00120B6996
:0B0BB300D2C3120C2BEDC313FDDBE7D7
:010BBE002214
:05090600900051EFF02C
:10090B00E4FAFFFDFC120AA97FCC120BA17F441263
:10091B000BA17FC87E00120C10120AA97FCC120B00
:10092B00A17FBE120BA1120B82AA07120B82EFFE44
:10093B007C00E42AFFEC3EFE7D1912036DAC06AD84
:0C094B0007EF7802CEC313CE13D8F9FFDB
:01095700227D
:0B099D00900045EBF0A3EAF0A3E9F0A6
:1009A800120AA97F33120BA1E4A3F0120B82900064
:1009B80045E0FBA3E0FAA3E0F9A3E0F58275830024
:1009C800EF12034B900048E004F0E0C3940840DBCA
:0109D80022FC
:0B0D10007F089000257402F0A3DFFCB8
:010D1B0022B5
:1006F800900053EEF0A3EFF07C277D1012037F12D9
:100708000D3F900053E0FEA3E0FF7C037DE8120359
:100718007F7C007D0A12037FAF05120D3F900053C6
:10072800E0FEA3E0FF7C007D6412037F7C007D0A6D
:1007380012037FAF05120D3F7F2E120D309000532C
:10074800E0FEA3E0FF7C007D0A12037F7C007D0AA7
:1007580012037FAF05120D3F900053E0FEA3E0FFA8
:0C0768007C007D0A12037FAF05020D3FEC
:05077400900049EFF0C8
:10077900E4A3F0900049E0FFA3E0C39F50687BFF2A
:100789007A0D791C120CA590004AE004FF120A1494
:100799007BFF7A0D7920120CA5E490004BF09000B4
:1007A9004BE0FFC39408502D90004AE075F008A46F
:1007B900241DF582E43400F583E5822FF582E435C2
:1007C90083F583E0FF120A147F20120D3090004B4D
:1007D900E004F080C97BFF7A0D7924120CA5900002
:0607E9004AE004F0808DDF
:0107EF0022E7
:100CC900E4F5CF75CDC030000475CED02275CE4085
:010CD90022F8
:0D0CE9008FCFE5CD30E7FB75CDC0AFCF223A
:100C7D00438920759840758DDC858D8BE4F587D281
:040C8D00ACD28E2235
:080D30008F993099FDC2992250
:020A1400AE072B
:100A1600EEC4540FFDC36480948AED5004243080E4
:100A26000424F62461FF120D30EE540FFDC36480DA
:100A3600948AED50042430800424F62461FF120DBC
:010A4600307F
:010A4700228C
:070D3F00EF2430FF020D302C
:100CA500120305FF600C120D30740129F9E43AFABC
:030CB50080EE22AC
:0D0A7A0090004CEBF0A3EAF0A3E9F0AE070A
:100A8700E4FDEDC39E501A90004CE0FBA3E0FAA3EF
:100A9700E0F98D8275830012031EFF120D300D8061
:010AA700E16D
:010AA800222B
:03002300020006D2
:06000600C0E0C083C082CF
:0F000C0030980CC298C2AF90002DE599F0D2AF9A
:07001B00D082D083D0E03257
:100C91008F9DE4F5BDF5BE75BC800000000043A248
:040CA10004D2AD22AA
:090D2700ED448044084FF5BC22A4
:03002B000209586F
:10095800C0E0C0F0C083C082C0D075D000C000C065
:1009680001C002C003C004C005C006C00753BCEFE5
:10097800E5BD5403FFADBE120A48D007D006D00526
:10098800D004D003D002D001D000D0D0D082D08300
:05099800D0F0D0E032B8
:1008C3004C00110000000000000000000000004C7C
:1008D30000030000000000000000000000004100D1
:0C08E3000F00410010004300000100372E
:010D4600228A
:010D47002289
:10055000900013E0641060030205D8A3E070799066
:1005600000057411F0E4A3F0900000E0FBA3E0FAB2
:10057000A3E0F9120305900007F090000112031E9A
:10058000900008F090000212031E900009F0900005
:100590000312031E90000AF090000412031E900044
:1005A0000BF090000512031E90000CF09000061254
:1005B000031E90000DF090000712031E90000EF035
:1005C0009000037455F0A374AAF07B017A007903BC
:1005D0007F0C1207F07F0122900013E0B41107A3F3
:0905E000E070037F02227F00227B
:0F0CDA0041444320646174613A0D0A000D0A0021
:0F08EF00480037FFFFFFFFFFFF000041003F0001
:100AD1007F01120906AD07AC06EC900037F0A3EFD9
:100AE100F07F02120906AC06EC900039F0A3EFF09A
:070AF10090003FE04440F0DB
:010AF80022DB
:100A480090003BEFF0A3EDF07BFF7A0C79DA120C03
:100A5800A590003BE0FF120A1490003CE0FF120A48
:100A6800147BFF7A0C79E6120CA590003FE04480D5
:020A7800F0226A
:100C3F0076616C696420636D6420726563656976A3
:060C4F0065642E0D0A0091
:0708FE004400416162630048
:0C0CF6007FB27EE67D0CDDFEDEFADFF64C
:010D020022CE
:0C0D03007FD97EAB7D49DDFEDEFADFF615
:010D0F0022C1
:05002600D288D2A822DF
:10085100120D03438E40120026120C7DD200120CA1
:10086100C9120D03120492120BDA7F10120C9112AD
:100871000D03D2AF90000FE060FAE4F0FD7F0412A7
:100881000D2790003FE05480FF3395E04F60F31255
:100891000550BF01DFE490003FF0C2A27BFF7A0C5C
:0C08A100793F120CA5120CF6D2A280C800
:030003000209D916
:1009D900C0E0C0F0C083C082C0D075D000C000C0E4
:1009E90001C002C003C004C005C006C007120675D5
:1009F900D007D006D005D004D003D002D001D00052
:0B0A0900D0D0D082D083D0F0D0E032FB
:030000000205E90D
:0C05E900787FE4F6D8FD75812002063012
:10030500BB010689828A83E0225002E722BBFE02F6
:09031500E32289828A83E4932229
:10031E00BB010CE58229F582E5833AF583E0225094
:10032E0006E92582F8E622BBFE06E92582F8E222DE
:0D033E00E58229F582E5833AF583E49322F8
:10034B00F8BB010DE58229F582E5833AF583E8F0E8
:10035B00225006E92582C8F622BBFE05E92582C894
:02036B00F2227C
:10036D00EF8DF0A4A8F0CF8CF0A428CE8DF0A42EA4
:02037D00FE225E
:10037F00BC000BBE0029EF8DF084FFADF022E4CC62
:10038F00F875F008EF2FFFEE33FEEC33FCEE9DEC2B
:10039F00984005FCEE9DFE0FD5F0E9E4CEFD22ED71
:1003AF00F8F5F0EE8420D21CFEADF075F008EF2FBB
:1003BF00FFED33FD4007985006D5F0F222C398FDAC
:0503CF000FD5F0EA2249
:1005F500020851E493A3F8E493A34003F68001F2C3
:1006050008DFF48029E493A3F85407240CC8C33306
:10061500C4540F4420C8834004F456800146F6DFD5
:10062500E4800B01020408102040809008ADE47EB0
:10063500019360BCA3FF543F30E509541FFEE493CA
:10064500A360010ECF54C025E060A840B8E493A391
:10065500FAE493A3F8E493A3C8C582C8CAC583CABC
:10066500F0A3C8C582C8CAC583CADFE9DEE780BE74
:0109050000F1
:00000001FF
