:10002E00436865636B205349343433322E2E2E0DC4
:10003E000A004445564943455F545950453A2030CD
:10004E007825782E0D0A000D0A0044455649434581
:10005E005F56455253494F4E3A20307825782E0D33
:10006E000A004445564943455F5354415455533A4B
:10007E002061742069646C65206D6F64652E0D0AB5
:10008E00004445564943455F5354415455533A2015
:10009E006174205258206D6F64652E0D0A00444520
:1000AE00564943455F5354415455533A2061742089
:1000BE005458206D6F64652E0D0A00437279737467
:1000CE00616C204F7363696C6C61746F72204C6F3E
:1000DE0061642043617061636974616E63653A2087
:1000EE0025780D0A0053493434333220494F2049C4
:1000FE006E69742E2E2E2E2E2E0D0A00494F20497B
:10010E006E697420636F6D706C657465642E0D0A74
:10011E0000534934343332206973206E6F74206675
:10012E006F756E642E2E2E2E2E2E0D0A0053493410
:10013E00343332204750494F496E697420636F6DD6
:10014E00706C6574652C636F6E6669672064657686
:10015E006963652E2E2E2E2E2E0D0A00436F6E66AF
:10016E0069672052462E2E2E2E2E2E0D0A00534932
:10017E0034343332496E697420636F6D706C6574FC
:10018E00652E0D0A005349343433325F53657420A3
:10019E0052784D6F64652E2E2E2E2E2E0D0A005384
:1001AE0049343433325F5365742054784D6F64652F
:1001BE002E2E2E2E2E2E0D0A005349343433325F3E
:1001CE005365742049646C654D6F64652E2E2E2E1A
:1001DE002E2E0D0A005349343433325F53656E644C
:1001EE00204649464F20646174612E2E2E2E0D0A34
:1001FE00006D6F646520696E204953523A0D0A00F6
:10020E00496E74657272757074206F636375656480
:10021E000D0A002072657620496E746572727570D3
:10022E00740D0A002073656E6420496E74657272D7
:10023E007570740D0A006D6F646520726567697361
:07024E007465723A0D0A000D
:10107500D3EF9400EE64809480400F7D817C14DC76
:0A108500FEDDFAEF1F70E91E80E6A1
:01108F00223E
:0711BF00C2CAD2CBD2B2225A
:090FD600900091EFF07D017F0E07
:100FDF00900009EDF0C2CBEF4480FF12117B90001F
:090FEF0009E0FF12117BD2CB22B4
:07110A00900090EFF07F045C
:0C111100C2CB12117B7FFF12117BD2CBEE
:01111D0022AF
:1007AA007BFF7A00792E121146E4FF121111900094
:1007BA0004EFF07BFF7A007940121146900004E0C2
:1007CA00FF120ED17BFF7A00795512114690000470
:1007DA00E0640860037F01227F0112111190000476
:1007EA00EFF07BFF7A007958121146900004E0FF7F
:1007FA00120ED17BFF7A0079551211467F0212112F
:10080A0011900004EFF0540F70087BFF7A007970A2
:10081A008022900004E0540FFFBF01087BFF7A009A
:10082A00798F8010900004E0540FFFBF02097BFF0C
:10083A007A0079AC1211467F09121111900004EF67
:10084A00F07BFF7A0079C9121146900004E0FF128A
:0D085A000ED17BFF7A0079551211467F0008
:01086700226E
:10060F007D537F75120FDF7D4B7F76120FDFE4FD79
:10061F007F77120FDF7D097F6E120FDF7DD57F6F22
:10062F00120FDF7D2C7F70120FDF7D807F58120F2E
:10063F00DF7D1F7F6D120FDF7D207F72120FDF7D39
:10064F002C7F1C120FDF7D417F20120FDF7D607F1B
:10065F0021120FDF7D277F22120FDF7D527F2312A2
:10066F000FDFE4FD7F24120FDF7D047F25120FDFE4
:10067F007D407F1D120FDF7D0A7F1E120FDF7D0F62
:10068F007F2A120FDF7D037F1F120FDF7D607F69CF
:10069F00120FDF7D0C7F34120FDF7D2A7F35120F93
:1006AF00DF7D027F33120FDF7D2D7F36120FDF7D4F
:1006BF00D47F37120FDF7D8D7F30120FDFE4FD7F88
:1006CF0032120FDF7D637F71120FDF7DB47F09025E
:0206DF000FDF2B
:100868007BFF7A0079F31211461211BF7BFF7A01E0
:10087800790A1211467F147E0080131207AAEF60CE
:10088800127BFF7A01791F1211467FF47E01121044
:100898007580E87DCA7F0B120FDF7DCA7F0C120FAF
:1008A800DF7DCA7F0D120FDF7F0A7E001210757B75
:1008B800FF7A01793B1211467F0312111112110AB6
:1008C800900091EFF07D807F07120FDF7F147E008C
:1008D8001210757F0312111112110A900091EFF096
:1008E8007BFF7A01796A12114612060F7DFF7F0598
:1008F800120FDF7DFF7F06120FDF7F031211111227
:10090800110A900091EFF07D077F05120FDFE4FDDB
:0E0918007F06120FDF7BFF7A01797C02114609
:101090007F0312111112110A120FD67D057F07125C
:0B10A0000FDF7BFF7A017993021146FD
:100F8E007F0312111112110A900091EFF07D027F72
:100F9E000E120FDF7D097F07120FDF7BFF7A0179BB
:040FAE00AD02114639
:1010AB007F0312111112110A120FD67D017F071245
:0B10BB000FDF7BFF7A0179C7021146AE
:100CC300900005EBF0A3EAF0A3E9F0900004EFF045
:010CD300FD23
:100CD4007F3E120FDFE4900008F0900004E0FF90E4
:100CE4000008E0FEC3EF6480F8EE6480985025901D
:100CF4000005E0FBA3E0FAA3E0F9EEFF3395E08FF3
:100D040082F583120559FD7F7F120FDF900008E002
:100D140004F080C6120F8E7BFF7A0179E30211463C
:1006E1007F07121111900001EFF07BFF7A0179FF72
:1006F100121146900001E0FF120ED17BFF7A0079C2
:10070100551211467F0312111112110A900091EF37
:10071100F07BFF7A02790E121146900090E0FF12F1
:100721000ED1900091E0FF120ED17BFF7A00795536
:10073100121146900090E030E15B7BFF7A02792153
:100741001211467F4B121111900002EFF0BF0C2ED7
:10075100E4900001F0900002E0FF900001E0C39FEF
:10076100501C7F7F121111900001E02457F582E4A3
:100771003400F583EFF0900001E004F080D77D02B2
:100781007F08120FDFE4FD7F08120FDF1210909037
:1007910000557401F0900090E030E20C7BFF7A028A
:0807A10079321211461210908A
:0107A900222D
:100FB2007F07121111900092EFF07BFF7A027944C1
:100FC200121146900092E0FF120ED17BFF7A007957
:040FD200550211466D
:100D85004E4F2E003A0D0A000D0A0000000000002B
:100D9500000000000000000000000000000000004E
:100DA500000000000000000000000000000000003E
:100DB500000000000000000000000000000000002E
:0B0DC500000000000000000000000023
:100D240050006328258F060400007028FF53C60175
:0E0D34001503F94800730202020202020202D5
:0100220022BB
:0610DF00C2C37F017E0088
:1010E500EF1FAC0670011E4C600512002280F12234
:06101900D2C37F017E003E
:10101F00EF1FAC0670011E4C600E12002212002250
:09102F0012002212002280E822C6
:1010C600D3EF9400EE9400400F7D817C14DCFEDDAE
:0810D600FAEF1F70EB1E80E829
:0110DE0022EF
:100F6600E4FDD2C37F01FE12101FC2C37F647E0060
:100F760012101FD2C37F0C7E0012101FA2C3E433CF
:080F8600FD7F587E0002101FE0
:10111E00C2C3121019A2C3E433FD7F047E00121065
:03112E001FAF05EB
:01113100229B
:10115900C2C3EF24FF92C37F057E0012101FD2C3C2
:011169002263
:101038007B081210DFEDC313FD12101930C304ED45
:0E1048004480FD7F0A7E0012101FDBE6AF051C
:011056002277
:02105700AD07E3
:101059007B081210DFED1392C37F0A7E0012101F66
:0B106900D2C31210E1EDC313FDDBE762
:011074002259
:050A4B00900006EFF031
:100A5000E4A3F0F9A3F0A3F0120F667FCC121057B5
:100A60007F441210577FC87E001210C6120F667F97
:100A700055121057E4FA900006E075F008A4245BC4
:100A8000F582E43400F583E5822AF582E43583F5C6
:100A900083E0FF1210570AEAB408DB7FBE1210573A
:100AA000121038900007EFF0121038A907EFFEE09F
:100AB0007C002400FFEC3EFE7D191205A8A3EEF099
:100AC000A3EFF0900008E0FEA3E07802CEC313CEBF
:040AD00013D8F9FF3F
:010AD40022FF
:0B0E5900900089EBF0A3EAF0A3E9F0A1
:100E6400120F667F33121057E4A3F012103890006B
:100E740089E0FBA3E0FAA3E0F9A3E0F5827583001F
:100E8400EF12058690008CE004F0E0C3940840DB88
:010E9400223B
:0B11A2007F089000737402F0A3DFFCD4
:0111AD00221F
:1002550078047C007D017BFF7A0D79907E007F40DC
:1002650012051AE4900045F0FAF9120F667FF012B4
:100275001057E4FB12111E900044EFF00012111EFE
:1002850000E07011EFB4010D74042BF582E4340025
:10029500F583E48016900044E0B40116EF70137402
:1002A500042BF582E43400F5837401F0FF12115933
:1002B5008075C2A6EAFF3395E0FE74732FF582744C
:1002C500003EF583E0FDB40221E4FF1211597404E8
:1002D5002BF582E43400F583E4F0EAFF3395E0FE84
:1002E50074732FF58274003E8038EDB401157F01DB
:1002F50012115974042BF582E43400F5837401F06E
:100305000A8024EAFF3395E0FE74732FF5827400AA
:100315003EF583E07011FF12115974042BF582E448
:100325003400F583E4F00A0BEB64406003020279C4
:10033500E4FBEBC3944040030203C4E4FFEB2F242A
:1003450004F582E43400F583E030E042EB13131347
:10035500541FFEE975F008A42463F582E43400F522
:1003650083E5822EF582E43583F583E0FDC313F042
:10037500E975F008A42463F582E43400F583E58289
:100385002EF582E43583F583E04480F08024EB1379
:100395001313541FFEE975F008A42463F582E434B1
:1003A50000F583E5822EF582E43583F583E0FEC30F
:1003B50013F00FEF6408708574082BFB020337C335
:1003C500EA648094804061EAFF3395E0FE74732F00
:1003D500F58274003EF583E0FF64026048EF701219
:1003E500EAFF3395E0FE74732FF58274003EF583C2
:1003F500802EEAFF3395E0FE74732FF58274003E7C
:10040500F583E0B4011FD3EA64809480400F7473D0
:100415002FF58274003EF5837402F0800890004544
:100425007401F080031A8097E4FA900045E06401B6
:10043500600909E96402600302026F1211A2120F3A
:0404450066E904FF61
:010449002290
:100AD500900006EEF0A3EFF07C277D101205BA1208
:100AE50011C6900006E0FEA3E0FF7C037DE8120539
:100AF500BA7C007D0A1205BAAF051211C690000630
:100B0500E0FEA3E0FF7C007D641205BA7C007D0A4F
:100B15001205BAAF051211C67F2E1211B790000645
:100B2500E0FEA3E0FF7C007D0A1205BA7C007D0A89
:100B35001205BAAF051211C6900006E0FEA3E0FF4C
:0C0B45007C007D0A1205BAAF050211C643
:050B5100900004EFF02C
:100B5600E4A3F0900004E0FFA3E0C39F50687BFF8E
:100B66007A0D7985121146900005E004FF120ED128
:100B76007BFF7A0D7989121146E4900006F0900009
:100B860006E0FFC39408502D900005E075F008A418
:100B96002463F582E43400F583E5822FF582E4359B
:100BA60083F583E0FF120ED17F201211B790000665
:100BB600E004F080C97BFF7A0D798D121146900012
:060BC60005E004F0808D43
:010BCC002206
:10116A00E4F5CF75CDC030000475CED02275CE40DF
:01117A002252
:0D117B008FCFE5CD30E7FB75CDC0AFCF22A3
:10113200438920759840758DDC858D8BE4F587D2C7
:04114200ACD28E227B
:0811B7008F993099FDC29922C5
:020ED100AE076A
:100ED300EEC4540FFDC36480948AED500424308023
:100EE3000424F62461FF1211B7EE540FFDC364808E
:100EF300948AED50042430800424F62461FF1211F7
:010F0300B736
:010F040022CA
:0711C600EF2430FF0211B716
:10114600120540FF600C1211B7740129F9E43AFA4E
:0311560080EE2206
:0D0F370090008DEBF0A3EAF0A3E9F0AE0707
:100F4400E4FDEDC39E501A90008DE0FBA3E0FAA3EC
:100F5400E0F98D82758300120559FF1211B70D80D7
:010F6400E1AB
:010F65002269
:03002300020006D2
:06000600C0E0C083C082CF
:0F000C0030980CC298C2AF900000E599F0D2AFC7
:07001B00D082D083D0E03257
:1010F500759D01E4F5BDF5BE75BC8000000000439B
:05110500A204D2AD229E
:0911AE00ED448044084FF5BC2219
:03002B00020DD0F3
:100DD000C0E0C0F0C083C082C0D075D000C000C0E9
:100DE00001C002C003C004C005C006C00753BCEF69
:100DF000E5BD5403FFADBE120F05D007D006D005E8
:100E0000D004D003D002D001D000D0D0D082D08383
:050E1000D0F0D0E0323B
:100D42004C00570000000000000000000000004CB2
:100D52000049000000000000000000000000410007
:0C0D620055004100560043004601007B94
:0111D30022F9
:0111D40022F8
:10092600900059E0641060030209AEA3E07079906C
:10093600004B7411F0E4A3F0900046E0FBA3E0FA4C
:10094600A3E0F912054090004DF090000112055900
:1009560090004EF090000212055990004FF0900062
:1009660003120559900050F09000041205599000AA
:1009760051F0900005120559900052F090000612B1
:100986000559900053F0900007120559900054F055
:100996009000497455F0A374AAF07B017A00794956
:1009A6007F0C120CC37F0122900059E0B41107A3FB
:0909B600E070037F02227F0022A1
:100FF80074656D70313A0D0A000D0A0074656D70E4
:10100800323A0D0A0041444320646174613A0D0A82
:0110180000D7
:0F0D6E0048007B616162626363000041008300A3
:100BCD007F01120A4B900004EEF0A3EFF0900004A9
:100BDD00E0FCA3E0FDEC90007BF0A3EDF07BFF7A51
:100BED000F79F8121146900004E0FEA3E0FF120AFF
:100BFD00D57BFF7A1079011211467F02120A4B90B4
:100C0D000004EEF0A3EFF0900004E0FCA3E0FDEC97
:100C1D0090007DF0A3EDF07BFF7A10790412114660
:100C2D00900004E0FEA3E0FF120AD57BFF7A107955
:0B0C3D0001121146900083E04440F0DB
:010C48002289
:100F050090007FEFF0A3EDF07BFF7A10790D1211C1
:100F15004690007FE0FF120ED1900080E0FF120E98
:100F2500D17BFF7A107901121146900083E044804D
:020F3500F022A8
:100E9500524F4D4944205365617263682E2E2E0DC5
:100EA5000A000D0A0076616C696420636D64207226
:100EB500656365697665642E0D0A004953522063A2
:0C0EC5006F6D706C657465642E0D0A0082
:070D7D004400856162630080
:0C1188007FB27EE67D0CDDFEDEFADFF6B5
:011194002238
:0C1195007FD97EAB7D49DDFEDEFADFF67F
:0111A100222B
:05002600D288D2A822DF
:0611CD00E4F596F5952201
:100C4900121195438E40120026121132D200121150
:100C59006A1211951208681210901210F512119566
:100C69007BFF7A0E7995121146120255120B517BB0
:100C7900FF7A0E79A7121146D2AF900055E060FABB
:100C8900E4F0FDFF1211AE900083E05480FF33952C
:100C9900E04F60F3120BCD900082E580F012092637
:100CA900BF01D7E4900083F0C2C97BFF7A0E79AA0D
:0A0CB900121146121188D2C980C042
:03000300020E15D5
:100E1500C0E0C0F0C083C082C0D075D000C000C0A3
:100E250001C002C003C004C005C006C0071206E128
:100E35007BFF7A0E79C0121146D007D006D005D0B7
:100E450004D003D002D001D000D0D0D082D083D03E
:040E5500F0D0E032C7
:030000000209BF33
:0C09BF00787FE4F6D8FD758120020A065E
:10044A00E709F608DFFA8046E709F208DFFA803E94
:10045A0088828C83E709F0A3DFFA8032E309F60881
:10046A00DFFA8078E309F208DFFA807088828C83E9
:10047A00E309F0A3DFFA806489828A83E0A3F6089D
:10048A00DFFA805889828A83E0A3F208DFFA804C77
:10049A0080D280FA80C680D4806980F2803380104E
:1004AA0080A680EA809A80A880DA80E280CA8033B7
:1004BA0089828A83ECFAE493A3C8C582C8CCC5832F
:1004CA00CCF0A3C8C582C8CCC583CCDFE9DEE780FF
:1004DA000D89828A83E493A3F608DFF9ECFAA9F07E
:1004EA00EDFB2289828A83ECFAE0A3C8C582C8CCD4
:1004FA00C583CCF0A3C8C582C8CCC583CCDFEADEED
:10050A00E880DB89828A83E493A3F208DFF980CC4E
:10051A0088F0EF60010E4E60C388F0ED2402B40447
:10052A000050B9F582EB2402B4040050AF232345EE
:06053A00822390049A7375
:10054000BB010689828A83E0225002E722BBFE02B9
:09055000E32289828A83E49322EC
:10055900BB010CE58229F582E5833AF583E0225057
:1005690006E92582F8E622BBFE06E92582F8E222A1
:0D057900E58229F582E5833AF583E49322BB
:10058600F8BB010DE58229F582E5833AF583E8F0AB
:10059600225006E92582C8F622BBFE05E92582C857
:0205A600F2223F
:1005A800EF8DF0A4A8F0CF8CF0A428CE8DF0A42E67
:0205B800FE2221
:1005BA00BC000BBE0029EF8DF084FFADF022E4CC25
:1005CA00F875F008EF2FFFEE33FEEC33FCEE9DECEE
:1005DA00984005FCEE9DFE0FD5F0E9E4CEFD22ED34
:1005EA00F8F5F0EE8420D21CFEADF075F008EF2F7E
:1005FA00FFED33FD4007985006D5F0F222C398FD6F
:05060A000FD5F0EA220B
:1009CB00020C49E493A3F8E493A34003F68001F2ED
:1009DB0008DFF48029E493A3F85407240CC8C3332D
:1009EB00C4540F4420C8834004F456800146F6DFFC
:1009FB00E4800B0102040810204080900D24E47E5B
:100A0B00019360BCA3FF543F30E509541FFEE493F0
:100A1B00A360010ECF54C025E060A840B8E493A3B7
:100A2B00FAE493A3F8E493A3C8C582C8CAC583CAE2
:100A3B00F0A3C8C582C8CAC583CADFE9DEE780BE9A
:010D8400006E
:00000001FF
