:10002E00436865636B205349343433322E2E2E0DC4
:10003E000A004445564943455F545950453A2030CD
:10004E007825782E0D0A000D0A0044455649434581
:10005E005F56455253494F4E3A20307825782E0D33
:10006E000A004445564943455F5354415455533A4B
:10007E002061742069646C65206D6F64652E0D0AB5
:10008E00004445564943455F5354415455533A2015
:10009E006174205258206D6F64652E0D0A00444520
:1000AE00564943455F5354415455533A2061742089
:1000BE005458206D6F64652E0D0A00437279737467
:1000CE00616C204F7363696C6C61746F72204C6F3E
:1000DE0061642043617061636974616E63653A2087
:1000EE0025780D0A0053493434333220494F2049C4
:1000FE006E69742E2E2E2E2E2E0D0A00494F20497B
:10010E006E697420636F6D706C657465642E0D0A74
:10011E0000534934343332206973206E6F74206675
:10012E006F756E642E2E2E2E2E2E0D0A0053493410
:10013E00343332204750494F496E697420636F6DD6
:10014E00706C6574652C636F6E6669672064657686
:10015E006963652E2E2E2E2E2E0D0A00436F6E66AF
:10016E0069672052462E2E2E2E2E2E0D0A00534932
:10017E0034343332496E697420636F6D706C6574FC
:10018E00652E0D0A005349343433325F53657420A3
:10019E0052784D6F64652E2E2E2E2E2E0D0A005384
:1001AE0049343433325F5365742054784D6F64652F
:1001BE002E2E2E2E2E2E0D0A005349343433325F3E
:1001CE005365742049646C654D6F64652E2E2E2E1A
:1001DE002E2E0D0A005349343433325F53656E644C
:1001EE00204649464F20646174612E2E2E2E0D0A34
:1001FE00006D6F646520696E204953523A0D0A00F6
:10020E00496E74657272757074206F636375656480
:10021E000D0A002072657620496E746572727570D3
:10022E00740D0A002073656E6420496E74657272D7
:10023E007570740D0A006D6F646520726567697361
:07024E007465723A0D0A000D
:100C4700D3EF9400EE64809480400F7D817C14DCA8
:0A0C5700FEDDFAEF1F70E91E80E6D3
:010C61002270
:070DB400C2CAD2CBD2B22269
:090BC90090004FEFF07D017F0E5A
:100BD200900037EDF0C2CBEF4480FF120D6490001D
:090BE20037E0FF120D64D2CB22B2
:070CF30090004EEFF07F04BA
:0C0CFA00C2CB120D647FFF120D64D2CB40
:010D060022CA
:1004BF007BFF7A00792E120D2FE4FF120CFA9000B9
:1004CF0032EFF07BFF7A007940120D2F900032E06F
:1004DF00FF120A9C7BFF7A007955120D2F90003284
:1004EF00E0640860037F01227F01120CFA90003252
:1004FF00EFF07BFF7A007958120D2F900032E0FF5A
:10050F00120A9C7BFF7A007955120D2F7F02120C75
:10051F00FA900032EFF0540F70087BFF7A00797079
:10052F008022900032E0540FFFBF01087BFF7A005A
:10053F00798F8010900032E0540FFFBF02097BFFCC
:10054F007A0079AC120D2F7F09120CFA900032EF5E
:10055F00F07BFF7A0079C9120D2F900032E0FF1265
:0D056F000A9C7BFF7A007955120D2F7F004A
:01057C00225C
:100255007D537F75120BD27D4B7F76120BD2E4FD59
:100265007F77120BD27D097F6E120BD27DD57F6F02
:10027500120BD27D2C7F70120BD27D807F58120B12
:10028500D27D1F7F6D120BD27D207F72120BD27D26
:100295002C7F1C120BD27D417F20120BD27D607FFB
:1002A50021120BD27D277F22120BD27D527F231282
:1002B5000BD2E4FD7F24120BD27D047F25120BD2D5
:1002C5007D407F1D120BD27D0A7F1E120BD27D0F42
:1002D5007F2A120BD27D037F1F120BD27D607F69AF
:1002E500120BD27D0C7F34120BD27D2A7F35120B77
:1002F500D27D027F33120BD27D2D7F36120BD27D3C
:10030500D47F37120BD27D8D7F30120BD2E4FD7F67
:1003150032120BD27D637F71120BD27DB47F09023D
:020325000BD2F9
:10057D007BFF7A0079F3120D2F120DB47BFF7A01F8
:10058D00790A120D2F7F147E0080131204BFEF60C5
:10059D00127BFF7A01791F120D2F7FF47E01120C51
:1005AD004780E87DCA7F0B120BD27DCA7F0C120BE0
:1005BD00D27DCA7F0D120BD27F0A7E00120C477BB3
:1005CD00FF7A01793B120D2F7F03120CFA120CF3F7
:1005DD0090004FEFF07D807F07120BD27F147E00CD
:1005ED00120C477F03120CFA120CF390004FEFF030
:1005FD007BFF7A01796A120D2F1202557DFF7F055F
:10060D00120BD27DFF7F06120BD27F03120CFA1252
:10061D000CF390004FEFF07D077F05120BD2E4FD38
:0E062D007F06120BD27BFF7A01797C020D2F23
:100C62007F03120CFA120CF3120BC97D057F0712D7
:0B0C72000BD27BFF7A017993020D2F5B
:100B81007F03120CFA120CF390004FEFF07D027FFD
:100B91000E120BD27D097F07120BD27BFF7A0179EE
:040BA100AD020D2F65
:100C7D007F03120CFA120CF3120BC97D017F0712C0
:0B0C8D000BD27BFF7A0179C7020D2F0C
:10083100900033EBF0A3EAF0A3E9F0900032EFF07F
:01084100FDB9
:100842007F3E120BD2E4900036F0900032E0FF902F
:100852000036E0FEC3EF6480F8EE64809850259085
:100862000033E0FBA3E0FAA3E0F9EEFF3395E08F5B
:1008720082F583120340FD7F7F120BD2900036E097
:1008820004F080C6120B817BFF7A0179E3020D2FFF
:1003F6007F07120CFA90002EEFF07BFF7A0179FF4F
:10040600120D2F90002EE0FF120A9C7BFF7A0079D6
:1004160055120D2F7F03120CFA120CF390004FEFBA
:10042600F07BFF7A02790E120D2F90004EE0FF123C
:100436000A9C90004FE0FF120A9C7BFF7A007955D8
:10044600120D2F90004EE030E15B7BFF7A0279219E
:10045600120D2F7F4B120CFA90002FEFF0BF0C2ECF
:10046600E490002EF090002FE0FF90002EE0C39F56
:10047600501C7F7F120CFA90002EE02411F582E4C6
:100486003400F583EFF090002EE004F080D77D0273
:100496007F08120BD2E4FD7F08120BD2120C629079
:1004A600000F7401F090004EE030E20C7BFF7A0200
:0804B6007932120D2F120C62C5
:0104BE00221B
:100BA5007F07120CFA900050EFF07BFF7A02794430
:100BB500120D2F900050E0FF120A9C7BFF7A0079FE
:040BC50055020D2F99
:1008920048001D0000000000000000480025020280
:0608A20002020202020244
:0100220022BB
:060CC800C2C37F017E00A3
:100CCE00EF1FAC0670011E4C600512002280F1224F
:060BEB00D2C37F017E0071
:100BF100EF1FAC0670011E4C600E12002212002283
:090C010012002212002280E822F8
:100C9800D3EF9400EE9400400F7D817C14DCFEDDE0
:080CA800FAEF1F70EB1E80E85B
:010CB0002221
:100B3100E4FDD2C37F01FE120BF1C2C37F647E00CC
:100B4100120BF1D2C37F0C7E00120BF1A2C3E4336E
:080B5100FD7F587E00020BF14C
:100D0700C2C3120BEBA2C3E433FD7F047E00120BB8
:030D1700F1AF0534
:010D1A0022B6
:100D4200C2C3EF24FF92C37F057E00120BF1D2C310
:010D5200227E
:100C0A007B08120CC8EDC313FD120BEB30C304EDC5
:0E0C1A004480FD7F0A7E00120BF1DBE6AF0581
:010C280022A9
:020C2900AD0715
:100C2B007B08120CC8ED1392C37F0A7E00120BF1E6
:0B0C3B00D2C3120CCAEDC313FDDBE7AF
:010C4600228B
:05093F00900032EFF012
:10094400E4FAFFFDFC120B317FCC120C297F441218
:100954000C297FC87E00120C98120B317FCC120C2C
:10096400297FBE120C29120C0AAA07120C0AEFFEE8
:100974007C00E42AFFEC3EFE7D1912038FAC06AD29
:0C09840007EF7802CEC313CE13D8F9FFA2
:010990002244
:0B0A6000900044EBF0A3EAF0A3E9F0E3
:100A6B00120B317F33120C29E4A3F0120C0A900005
:100A7B0044E0FBA3E0FAA3E0F9A3E0F58275830061
:100A8B00EF12036D900047E004F0E0C3940840DBE5
:010A9B002238
:0B0D8B007F089000257402F0A3DFFC3D
:010D9600223A
:10074900900034EEF0A3EFF07C277D101203A11284
:100759000DBB900034E0FEA3E0FF7C037DE81203AB
:10076900A17C007D0A1203A1AF05120DBB900034D4
:10077900E0FEA3E0FF7C007D641203A17C007D0AFA
:100789001203A1AF05120DBB7F2E120DAC900034E0
:10079900E0FEA3E0FF7C007D0A1203A17C007D0A34
:1007A9001203A1AF05120DBB900034E0FEA3E0FFD8
:0C07B9007C007D0A1203A1AF05020DBBFD
:0508E900900048EFF053
:1008EE00E4A3F0900048E0FFA3E0C39F5042E4A3CE
:1008FE00F090004AE0FFC39408502D900049E07537
:10090E00F008A4241DF582E43400F583E5822FF56A
:10091E0082E43583F583E0FF120A9C7F20120DAC32
:10092E0090004AE004F080C9900049E004F080B3E2
:01093E002296
:100D5300E4F5CF75CDC030000475CED02275CE40FA
:010D6300226D
:0D0D64008FCFE5CD30E7FB75CDC0AFCF22BE
:100D1B00438920759840758DDC858D8BE4F587D2E2
:040D2B00ACD28E2296
:080DAC008F993099FDC29922D4
:020A9C00AE07A3
:100A9E00EEC4540FFDC36480948AED50042430805C
:100AAE000424F62461FF120DACEE540FFDC36480D6
:100ABE00948AED50042430800424F62461FF120D34
:010ACE00AC7B
:010ACF002204
:070DBB00EF2430FF020DAC34
:100D2F00120327FF600C120DAC740129F9E43AFA93
:030D3F0080EE2221
:0D0B020090004BEBF0A3EAF0A3E9F0AE0782
:100B0F00E4FDEDC39E501A90004BE0FBA3E0FAA367
:100B1F00E0F98D82758300120340FF120DAC0D803A
:010B2F00E1E4
:010B300022A2
:03002300020006D2
:06000600C0E0C083C082CF
:0F000C0030980CC298C2AF90002DE599F0D2AF9A
:07001B00D082D083D0E03257
:0C0D970041444320646174613A0D0A007D
:100CDE00759D01E4F5BDF5BE75BC800000000043B6
:050CEE00A204D2AD22BA
:090DA300ED448044084FF5BC2228
:03002B0002099136
:10099100C0E0C0F0C083C082C0D075D000C000C02C
:1009A10001C002C003C004C005C006C00753BCEFAC
:1009B1007BFF7A0D7997120D2FE5BD5403FFADBE74
:1009C100120AD0D007D006D005D004D003D002D06F
:0E09D10001D000D0D0D082D083D0F0D0E03260
:1008A8004C00110000000000000000000000004C97
:1008B80000030000000000000000000000004100EC
:0C08C8000F004100100043000001003848
:010DC8002208
:010DC9002207
:1006C700900013E064107069A3E0706590000574F2
:1006D70011F0E4A3F0900000E0FBA3E0FAA3E0F937
:1006E700120327900007F0900001120340900008C2
:1006F700F0900002120340900009F09000031203EB
:100707004090000AF090000412034090000BF09014
:10071700000512034090000CF09000037455F0A3FD
:1007270074AAF07B017A0079037F0C1208317F01EC
:1007370022900013E0B41107A3E070037F02227F29
:0207470000228E
:100CB10074656D703A0D0A000D0A004144432064C9
:070CC1006174613A0D0A00A5
:0D08D40046003861616262636341003E00CE
:100A2300900032EEF0A3EFF0900032E0FCA3E0FD83
:100A3300EC900038F0A3EDF07BFF7A0C79B1120D46
:100A43002F900032E0FEA3E0FF1207497BFF7A0CF0
:0D0A530079B9120D2F90003EE04480F02292
:100AD00090003AEFF0A3EDF07BFF7A0C79BC120D99
:100AE0002F90003AE0FF120A9C90003BE0FF120AB0
:100AF0009C7BFF7A0C79B9120D2F90003EE0448068
:020B0000F022E1
:100B590076616C696420646174612072656365699A
:100B69007665642E0D0A0049535220636F6D706CCF
:080B7900657465642E0D0A008D
:0708E1004400406162630066
:0C0D71007FB27EE67D0CDDFEDEFADFF6D0
:010D7D002253
:0C0D7E007FD97EAB7D49DDFEDEFADFF69A
:010D8A002246
:05002600D288D2A822DF
:060DC200E4F596F5952210
:1007C500120D7E438E40120026120D1BD200120D13
:1007D50053120D7E12057D120C62120CDED2AF9003
:1007E500000FE060FAE4F0FDFF120DA390003EE07B
:1007F500FF5480FD3395E04D60F2EF547F90003E4D
:10080500F07F0112093F120A2390003DE580F012A6
:1008150006C7BF01CAE490003EF0C2A67BFF7A0B73
:0C0825007959120D2F120D71D2A680B36C
:030003000209DF10
:1009DF00C0E0C0F0C083C082C0D075D000C000C0DE
:1009EF0001C002C003C004C005C006C0071203F651
:1009FF007BFF7A0B7970120D2FD007D006D005D060
:100A0F0004D003D002D001D000D0D0D082D083D078
:040A1F00F0D0E03201
:0300000002063BBA
:0C063B00787FE4F6D8FD7581200206826D
:10032700BB010689828A83E0225002E722BBFE02D4
:09033700E32289828A83E4932207
:10034000BB010CE58229F582E5833AF583E0225072
:1003500006E92582F8E622BBFE06E92582F8E222BC
:0D036000E58229F582E5833AF583E49322D6
:10036D00F8BB010DE58229F582E5833AF583E8F0C6
:10037D00225006E92582C8F622BBFE05E92582C872
:02038D00F2225A
:10038F00EF8DF0A4A8F0CF8CF0A428CE8DF0A42E82
:02039F00FE223C
:1003A100BC000BBE0029EF8DF084FFADF022E4CC40
:1003B100F875F008EF2FFFEE33FEEC33FCEE9DEC09
:1003C100984005FCEE9DFE0FD5F0E9E4CEFD22ED4F
:1003D100F8F5F0EE8420D21CFEADF075F008EF2F99
:1003E100FFED33FD4007985006D5F0F222C398FD8A
:0503F1000FD5F0EA2227
:100647000207C5E493A3F8E493A34003F68001F2FD
:1006570008DFF48029E493A3F85407240CC8C333B4
:10066700C4540F4420C8834004F456800146F6DF83
:10067700E4800B0102040810204080900892E47E79
:10068700019360BCA3FF543F30E509541FFEE49378
:10069700A360010ECF54C025E060A840B8E493A33F
:1006A700FAE493A3F8E493A3C8C582C8CAC583CA6A
:1006B700F0A3C8C582C8CAC583CADFE9DEE780BE22
:0108E800000F
:00000001FF
