:10002E00436865636B205349343433322E2E2E0DC4
:10003E000A004445564943455F545950453A2030CD
:10004E007825782E0D0A000D0A0044455649434581
:10005E005F56455253494F4E3A20307825782E0D33
:10006E000A004445564943455F5354415455533A4B
:10007E002061742069646C65206D6F64652E0D0AB5
:10008E00004445564943455F5354415455533A2015
:10009E006174205258206D6F64652E0D0A00444520
:1000AE00564943455F5354415455533A2061742089
:1000BE005458206D6F64652E0D0A00437279737467
:1000CE00616C204F7363696C6C61746F72204C6F3E
:1000DE0061642043617061636974616E63653A2087
:1000EE0025780D0A0053493434333220494F2049C4
:1000FE006E69742E2E2E2E2E2E0D0A00494F20497B
:10010E006E697420636F6D706C657465642E0D0A74
:10011E0000534934343332206973206E6F74206675
:10012E006F756E642E2E2E2E2E2E0D0A0053493410
:10013E00343332204750494F496E697420636F6DD6
:10014E00706C6574652C636F6E6669672064657686
:10015E006963652E2E2E2E2E2E0D0A00436F6E66AF
:10016E0069672052462E2E2E2E2E2E0D0A00534932
:10017E0034343332496E697420636F6D706C6574FC
:10018E00652E0D0A005349343433325F53657420A3
:10019E0052784D6F64652E2E2E2E2E2E0D0A005384
:1001AE0049343433325F5365742054784D6F64652F
:1001BE002E2E2E2E2E2E0D0A005349343433325F3E
:1001CE005365742049646C654D6F64652E2E2E2E1A
:1001DE002E2E0D0A005349343433325F53656E644C
:1001EE00204649464F20646174612E2E2E2E0D0A34
:1001FE00006D6F646520696E204953523A0D0A00F6
:10020E00496E74657272757074206F636375656480
:10021E000D0A002072657620496E746572727570D3
:10022E00740D0A002073656E6420496E74657272D7
:10023E007570740D0A006D6F646520726567697361
:07024E007465723A0D0A000D
:100C4100D3EF9400EE64809480400F7D817C14DCAE
:0A0C5100FEDDFAEF1F70E91E80E6D9
:010C5B002276
:070DAE00C2CAD2CBD2B2226F
:090BC30090004EEFF07D017F0E61
:100BCC00900036EDF0C2CBEF4480FF120D5E90002A
:090BDC0036E0FF120D5ED2CB22BF
:070CED0090004DEFF07F04C1
:0C0CF400C2CB120D5E7FFF120D5ED2CB52
:010D000022D0
:1004BF007BFF7A00792E120D29E4FF120CF49000C5
:1004CF0031EFF07BFF7A007940120D29900031E077
:1004DF00FF120A967BFF7A007955120D2990003191
:1004EF00E0640860037F01227F01120CF490003159
:1004FF00EFF07BFF7A007958120D29900031E0FF61
:10050F00120A967BFF7A007955120D297F02120C81
:10051F00F4900031EFF0540F70087BFF7A00797080
:10052F008022900031E0540FFFBF01087BFF7A005B
:10053F00798F8010900031E0540FFFBF02097BFFCD
:10054F007A0079AC120D297F09120CF4900031EF6B
:10055F00F07BFF7A0079C9120D29900031E0FF126C
:0D056F000A967BFF7A007955120D297F0056
:01057C00225C
:100255007D537F75120BCC7D4B7F76120BCCE4FD65
:100265007F77120BCC7D097F6E120BCC7DD57F6F0E
:10027500120BCC7D2C7F70120BCC7D807F58120B1E
:10028500CC7D1F7F6D120BCC7D207F72120BCC7D38
:100295002C7F1C120BCC7D417F20120BCC7D607F07
:1002A50021120BCC7D277F22120BCC7D527F23128E
:1002B5000BCCE4FD7F24120BCC7D047F25120BCCE7
:1002C5007D407F1D120BCC7D0A7F1E120BCC7D0F4E
:1002D5007F2A120BCC7D037F1F120BCC7D607F69BB
:1002E500120BCC7D0C7F34120BCC7D2A7F35120B83
:1002F500CC7D027F33120BCC7D2D7F36120BCC7D4E
:10030500D47F37120BCC7D8D7F30120BCCE4FD7F73
:1003150032120BCC7D637F71120BCC7DB47F090249
:020325000BCCFF
:10057D007BFF7A0079F3120D29120DAE7BFF7A0104
:10058D00790A120D297F147E0080131204BFEF60CB
:10059D00127BFF7A01791F120D297FF47E01120C57
:1005AD004180E87DCA7F0B120BCC7DCA7F0C120BEC
:1005BD00CC7DCA7F0D120BCC7F0A7E00120C417BC5
:1005CD00FF7A01793B120D297F03120CF4120CED09
:1005DD0090004EEFF07D807F07120BCC7F147E00D4
:1005ED00120C417F03120CF4120CED90004EEFF043
:1005FD007BFF7A01796A120D291202557DFF7F0565
:10060D00120BCC7DFF7F06120BCC7F03120CF41264
:10061D000CED90004EEFF07D077F05120BCCE4FD45
:0E062D007F06120BCC7BFF7A01797C020D292F
:100C5C007F03120CF4120CED120BC37D057F0712EF
:0B0C6C000BCC7BFF7A017993020D296D
:100B7B007F03120CF4120CED90004EEFF07D027F10
:100B8B000E120BCC7D097F07120BCC7BFF7A017900
:040B9B00AD020D2971
:100C77007F03120CF4120CED120BC37D017F0712D8
:0B0C87000BCC7BFF7A0179C7020D291E
:10082B00900032EBF0A3EAF0A3E9F0900031EFF087
:01083B00FDBF
:10083C007F3E120BCCE4900035F0900031E0FF903D
:10084C000035E0FEC3EF6480F8EE6480985025908C
:10085C000032E0FBA3E0FAA3E0F9EEFF3395E08F62
:10086C0082F583120340FD7F7F120BCC900035E0A4
:10087C0004F080C6120B7B7BFF7A0179E3020D2911
:1003F6007F07120CF490002EEFF07BFF7A0179FF55
:10040600120D2990002EE0FF120A967BFF7A0079E2
:1004160055120D297F03120CF4120CED90004EEFCD
:10042600F07BFF7A02790E120D2990004DE0FF1243
:100436000A9690004EE0FF120A967BFF7A007955E5
:10044600120D2990004DE030E15B7BFF7A027921A5
:10045600120D297F4B120CF490002FEFF0BF0C2EDB
:10046600E490002EF090002FE0FF90002EE0C39F56
:10047600501C7F7F120CF490002EE02411F582E4CC
:100486003400F583EFF090002EE004F080D77D0273
:100496007F08120BCCE4FD7F08120BCC120C5C908B
:1004A600000F7401F090004DE030E20C7BFF7A0201
:0804B6007932120D29120C5CD1
:0104BE00221B
:100B9F007F07120CF490004FEFF07BFF7A0279443D
:100BAF00120D2990004FE0FF120A967BFF7A007911
:040BBF0055020D29A5
:10088C0048001D0000000000000000480025020286
:06089C000202020202024A
:0100220022BB
:060CC200C2C37F017E00A9
:100CC800EF1FAC0670011E4C600512002280F12255
:060BE500D2C37F017E0077
:100BEB00EF1FAC0670011E4C600E12002212002289
:090BFB0012002212002280E822FF
:100C9200D3EF9400EE9400400F7D817C14DCFEDDE6
:080CA200FAEF1F70EB1E80E861
:010CAA002227
:100B2B00E4FDD2C37F01FE120BEBC2C37F647E00D8
:100B3B00120BEBD2C37F0C7E00120BEBA2C3E43380
:080B4B00FD7F587E00020BEB58
:100D0100C2C3120BE5A2C3E433FD7F047E00120BC4
:030D1100EBAF0540
:010D140022BC
:100D3C00C2C3EF24FF92C37F057E00120BEBD2C31C
:010D4C002284
:100C04007B08120CC2EDC313FD120BE530C304EDD7
:0E0C14004480FD7F0A7E00120BEBDBE6AF058D
:010C220022AF
:020C2300AD071B
:100C25007B08120CC2ED1392C37F0A7E00120BEBF8
:0B0C3500D2C3120CC4EDC313FDDBE7BB
:010C40002291
:05093900900031EFF019
:10093E00E4FAFFFDFC120B2B7FCC120C237F44122A
:10094E000C237FC87E00120C92120B2B7FCC120C44
:10095E00237FBE120C23120C04AA07120C04EFFE06
:10096E007C00E42AFFEC3EFE7D1912038FAC06AD2F
:0C097E0007EF7802CEC313CE13D8F9FFA8
:01098A00224A
:0B0A5A00900043EBF0A3EAF0A3E9F0EA
:100A6500120B2B7F33120C23E4A3F0120C0490001D
:100A750043E0FBA3E0FAA3E0F9A3E0F58275830068
:100A8500EF12036D900046E004F0E0C3940840DBEC
:010A9500223E
:0B0D85007F089000257402F0A3DFFC43
:010D90002240
:10074900900033EEF0A3EFF07C277D101203A11285
:100759000DB5900033E0FEA3E0FF7C037DE81203B2
:10076900A17C007D0A1203A1AF05120DB5900033DB
:10077900E0FEA3E0FF7C007D641203A17C007D0AFA
:100789001203A1AF05120DB57F2E120DA6900033ED
:10079900E0FEA3E0FF7C007D0A1203A17C007D0A34
:1007A9001203A1AF05120DB5900033E0FEA3E0FFDF
:0C07B9007C007D0A1203A1AF05020DB503
:0508E300900047EFF05A
:1008E800E4A3F0900047E0FFA3E0C39F5042E4A3D5
:1008F800F0900049E0FFC39408502D900048E0753F
:10090800F008A4241DF582E43400F583E5822FF570
:1009180082E43583F583E0FF120A967F20120DA644
:10092800900049E004F080C9900048E004F080B3EA
:01093800229C
:100D4D00E4F5CF75CDC030000475CED02275CE4000
:010D5D002273
:0D0D5E008FCFE5CD30E7FB75CDC0AFCF22C4
:100D1500438920759840758DDC858D8BE4F587D2E8
:040D2500ACD28E229C
:080DA6008F993099FDC29922DA
:020A9600AE07A9
:100A9800EEC4540FFDC36480948AED500424308062
:100AA8000424F62461FF120DA6EE540FFDC36480E2
:100AB800948AED50042430800424F62461FF120D3A
:010AC800A687
:010AC900220A
:070DB500EF2430FF020DA640
:100D2900120327FF600C120DA6740129F9E43AFA9F
:030D390080EE2227
:0D0AFC0090004AEBF0A3EAF0A3E9F0AE078A
:100B0900E4FDEDC39E501A90004AE0FBA3E0FAA36E
:100B1900E0F98D82758300120340FF120DA60D8046
:010B2900E1EA
:010B2A0022A8
:03002300020006D2
:06000600C0E0C083C082CF
:0F000C0030980CC298C2AF90002DE599F0D2AF9A
:07001B00D082D083D0E03257
:0C0D910041444320646174613A0D0A0083
:100CD800759D01E4F5BDF5BE75BC800000000043BC
:050CE800A204D2AD22C0
:090D9D00ED448044084FF5BC222E
:03002B0002098B3C
:10098B00C0E0C0F0C083C082C0D075D000C000C032
:10099B0001C002C003C004C005C006C00753BCEFB2
:1009AB007BFF7A0D7991120D29E5BD5403FFADBE86
:1009BB00120ACAD007D006D005D004D003D002D07B
:0E09CB0001D000D0D0D082D083D0F0D0E03266
:1008A2004C00110000000000000000000000004C9D
:1008B20000030000000000000000000000004100F2
:0C08C2000F00410010004300000100374F
:010DC200220E
:010DC300220D
:1006C700900013E064107069A3E0706590000574F2
:1006D70011F0E4A3F0900000E0FBA3E0FAA3E0F937
:1006E700120327900007F0900001120340900008C2
:1006F700F0900002120340900009F09000031203EB
:100707004090000AF090000412034090000BF09014
:10071700000512034090000CF09000037455F0A3FD
:1007270074AAF07B017A0079037F0C12082B7F01F2
:1007370022900013E0B41107A3E070037F02227F29
:0207470000228E
:100CAB0074656D703A0D0A000D0A004144432064CF
:070CBB006174613A0D0A00AB
:0D08CE0046003761616262636341003D00D6
:100A1D00900031EEF0A3EFF0900031E0FCA3E0FD8B
:100A2D00EC900037F0A3EDF07BFF7A0C79AB120D53
:100A3D0029900031E0FEA3E0FF1207497BFF7A0CFD
:0D0A4D0079B3120D2990003DE04480F022A5
:100ACA00900039EFF0A3EDF07BFF7A0C79B6120DA6
:100ADA0029900039E0FF120A9690003AE0FF120AC4
:100AEA00967BFF7A0C79B3120D2990003DE0448081
:020AFA00F022E8
:100B530076616C69642064617461207265636569A0
:100B63007665642E0D0A0049535220636F6D706CD5
:080B7300657465642E0D0A0093
:0708DB0044003F616263006D
:0C0D6B007FB27EE67D0CDDFEDEFADFF6D6
:010D77002259
:0C0D78007FD97EAB7D49DDFEDEFADFF6A0
:010D8400224C
:05002600D288D2A822DF
:060DBC00E4F596F5952216
:1007C500120D78438E40120026120D15D200120D1F
:1007D5004D120D7812057D120C5C120CD8D2AF901B
:1007E500000FE060FAE4F0FDFF120D9D90003DE082
:1007F500FF5480FD3395E04D60F2EF547F90003D4E
:10080500F07F01120939120A1D1206C7BF01D0E493
:1008150090003DF0C2A67BFF7A0B7953120D291289
:060825000D6BD2A680B9A4
:030003000209D916
:1009D900C0E0C0F0C083C082C0D075D000C000C0E4
:1009E90001C002C003C004C005C006C0071203F657
:1009F9007BFF7A0B796A120D29D007D006D005D072
:100A090004D003D002D001D000D0D0D082D083D07E
:040A1900F0D0E03207
:0300000002063BBA
:0C063B00787FE4F6D8FD7581200206826D
:10032700BB010689828A83E0225002E722BBFE02D4
:09033700E32289828A83E4932207
:10034000BB010CE58229F582E5833AF583E0225072
:1003500006E92582F8E622BBFE06E92582F8E222BC
:0D036000E58229F582E5833AF583E49322D6
:10036D00F8BB010DE58229F582E5833AF583E8F0C6
:10037D00225006E92582C8F622BBFE05E92582C872
:02038D00F2225A
:10038F00EF8DF0A4A8F0CF8CF0A428CE8DF0A42E82
:02039F00FE223C
:1003A100BC000BBE0029EF8DF084FFADF022E4CC40
:1003B100F875F008EF2FFFEE33FEEC33FCEE9DEC09
:1003C100984005FCEE9DFE0FD5F0E9E4CEFD22ED4F
:1003D100F8F5F0EE8420D21CFEADF075F008EF2F99
:1003E100FFED33FD4007985006D5F0F222C398FD8A
:0503F1000FD5F0EA2227
:100647000207C5E493A3F8E493A34003F68001F2FD
:1006570008DFF48029E493A3F85407240CC8C333B4
:10066700C4540F4420C8834004F456800146F6DF83
:10067700E4800B010204081020408090088CE47E7F
:10068700019360BCA3FF543F30E509541FFEE49378
:10069700A360010ECF54C025E060A840B8E493A33F
:1006A700FAE493A3F8E493A3C8C582C8CAC583CA6A
:1006B700F0A3C8C582C8CAC583CADFE9DEE780BE22
:0108E2000015
:00000001FF
