:10002E00436865636B205349343433322E2E2E0DC4
:10003E000A004445564943455F545950453A2030CD
:10004E007825782E0D0A000D0A0044455649434581
:10005E005F56455253494F4E3A20307825782E0D33
:10006E000A004445564943455F5354415455533A4B
:10007E002061742069646C65206D6F64652E0D0AB5
:10008E00004445564943455F5354415455533A2015
:10009E006174205258206D6F64652E0D0A00444520
:1000AE00564943455F5354415455533A2061742089
:1000BE005458206D6F64652E0D0A00437279737467
:1000CE00616C204F7363696C6C61746F72204C6F3E
:1000DE0061642043617061636974616E63653A2087
:1000EE0025780D0A0053493434333220494F2049C4
:1000FE006E69742E2E2E2E2E2E0D0A00494F20497B
:10010E006E697420636F6D706C657465642E0D0A74
:10011E0000534934343332206973206E6F74206675
:10012E006F756E642E2E2E2E2E2E0D0A0053493410
:10013E00343332204750494F496E697420636F6DD6
:10014E00706C6574652C636F6E6669672064657686
:10015E006963652E2E2E2E2E2E0D0A00436F6E66AF
:10016E0069672052462E2E2E2E2E2E0D0A00534932
:10017E0034343332496E697420636F6D706C6574FC
:10018E00652E0D0A005349343433325F53657420A3
:10019E0052784D6F64652E2E2E2E2E2E0D0A005384
:1001AE0049343433325F5365742054784D6F64652F
:1001BE002E2E2E2E2E2E0D0A005349343433325F3E
:1001CE005365742049646C654D6F64652E2E2E2E1A
:1001DE002E2E0D0A005349343433325F53656E644C
:1001EE00204649464F20646174612E2E2E2E0D0A34
:1001FE00002072657620496E746572727570740D8A
:10020E000A002073656E6420496E74657272757093
:10021E00740D0A006D6F646520726567697374658D
:05022E00723A0D0A0008
:100F5400D3EF9400EE64809480400F7D817C14DC98
:0A0F6400FEDDFAEF1F70E91E80E6C3
:010F6E002260
:0710AE00C2CAD2CBD2B2226C
:090ED600900091EFF07D017F0E08
:100EDF00900009EDF0C2CBEF4480FF12106A900032
:090EEF0009E0FF12106AD2CB22C7
:070FE900900090EFF07F047F
:0C0FF000C2CB12106A7FFF12106AD2CB35
:010FFC0022D2
:1006BF007BFF7A00792E121025E4FF120FF09000C5
:1006CF0004EFF07BFF7A007940121025900004E0D0
:1006DF00FF120DB07BFF7A007955121025900004A0
:1006EF00E0640860037F01227F01120FF090000485
:1006FF00EFF07BFF7A007958121025900004E0FF8D
:10070F00120DB07BFF7A0079551210257F02120F60
:10071F00F0900004EFF0540F70087BFF7A007970AF
:10072F008022900004E0540FFFBF01087BFF7A0086
:10073F00798F8010900004E0540FFFBF02097BFFF8
:10074F007A0079AC1210257F09120FF0900004EF98
:10075F00F07BFF7A0079C9121025900004E0FF1298
:0D076F000DB07BFF7A0079551210257F0038
:01077C00225A
:1005ED007D537F75120EDF7D4B7F76120EDFE4FD9E
:1005FD007F77120EDF7D097F6E120EDF7DD57F6F47
:10060D00120EDF7D2C7F70120EDF7D807F58120E53
:10061D00DF7D1F7F6D120EDF7D207F72120EDF7D5D
:10062D002C7F1C120EDF7D417F20120EDF7D607F3F
:10063D0021120EDF7D277F22120EDF7D527F2312C6
:10064D000EDFE4FD7F24120EDF7D047F25120EDF09
:10065D007D407F1D120EDF7D0A7F1E120EDF7D0F86
:10066D007F2A120EDF7D037F1F120EDF7D607F69F3
:10067D00120EDF7D0C7F34120EDF7D2A7F35120EB8
:10068D00DF7D027F33120EDF7D2D7F36120EDF7D73
:10069D00D47F37120EDF7D8D7F30120EDFE4FD7FAC
:1006AD0032120EDF7D637F71120EDF7DB47F090282
:0206BD000EDF4E
:10077D007BFF7A0079F31210251210AE7BFF7A0100
:10078D00790A1210257F147E0080131206BFEF60C8
:10079D00127BFF7A01791F1210257FF47E01120F53
:1007AD005480E87DCA7F0B120EDF7DCA7F0C120EBE
:1007BD00DF7DCA7F0D120EDF7F0A7E00120F547B84
:1007CD00FF7A01793B1210257F03120FF0120FE90A
:1007DD00900091EFF07D807F07120EDF7F147E0079
:1007ED00120F547F03120FF0120FE9900091EFF0EA
:1007FD007BFF7A01796A1210251205ED7DFF7F05C9
:10080D00120EDF7DFF7F06120EDF7F03120FF01237
:10081D000FE9900091EFF07D077F05120EDFE4FDEB
:0E082D007F06120EDF7BFF7A01797C02102518
:100F6F007F03120FF0120FE9120ED67D057F0712C5
:0B0F7F000EDF7BFF7A01799302102542
:100E8E007F03120FF0120FE9900091EFF07D027FB9
:100E9E000E120EDF7D097F07120EDF7BFF7A0179BE
:040EAE00AD0210255C
:100F8A007F03120FF0120FE9120ED67D017F0712AE
:0B0F9A000EDF7BFF7A0179C7021025F3
:100BE700900005EBF0A3EAF0A3E9F0900004EFF022
:010BF700FD00
:100BF8007F3E120EDFE4900008F0900004E0FF90C2
:100C08000008E0FEC3EF6480F8EE648098502590F9
:100C18000005E0FBA3E0FAA3E0F9EEFF3395E08FCF
:100C280082F583120537FD7F7F120EDF900008E002
:100C380004F080C6120E8E7BFF7A0179E30210253C
:1009EA007F03120FF0120FE9900091EFF090009040
:1009FA00E030E15B7BFF7A0179FF1210257F4B1211
:100A0A000FF0900002EFF0BF0C2EE4900001F0907E
:100A1A000002E0FF900001E0C39F501C7F7F120F8D
:100A2A00F0900001E02457F582E43400F583EFF0FA
:100A3A00900001E004F080D77D027F08120EDFE407
:100A4A00FD7F08120EDF120F6F9000557401F090AF
:100A5A000090E030E20C7BFF7A0279101210251226
:020A6A000F6F0C
:010A6C002267
:100EB2007F07120FF0900094EFF07BFF7A02792205
:100EC200121025900094E0FF120DB07BFF7A00799A
:040ED2005502102590
:100CA9004E4F2E003A0D0A000D0A00000000000008
:100CB900000000000000000000000000000000002B
:100CC900000000000000000000000000000000001B
:100CD900000000000000000000000000000000000B
:0B0CE900000000000000000000000000
:100C480050006328258F060400007028FF53C60152
:0E0C58001503F94800730202020202020202B2
:0100220022BB
:060FBE00C2C37F017E00AA
:100FC400EF1FAC0670011E4C600512002280F12256
:060EF800D2C37F017E0061
:100EFE00EF1FAC0670011E4C600E12002212002273
:090F0E0012002212002280E822E8
:100FA500D3EF9400EE9400400F7D817C14DCFEDDD0
:080FB500FAEF1F70EB1E80E84B
:010FBD002211
:100E3E00E4FDD2C37F01FE120EFEC2C37F647E00AC
:100E4E00120EFED2C37F0C7E00120EFEA2C3E4333E
:080E5E00FD7F587E00020EFE2C
:100FFD00C2C3120EF8A2C3E433FD7F047E00120EAD
:03100D00FEAF052E
:0110100022BD
:10103800C2C3EF24FF92C37F057E00120EFED2C307
:011048002285
:100F17007B08120FBEEDC313FD120EF830C304EDAC
:0E0F27004480FD7F0A7E00120EFEDBE6AF0561
:010F35002299
:020F3600AD0705
:100F38007B08120FBEED1392C37F0A7E00120EFECD
:0B0F4800D2C3120FC0EDC313FDDBE7A6
:010F5300227B
:05096000900004EFF01F
:10096500E4A3F0F9A3F0A3F0120E3E7FCC120F36EC
:100975007F44120F367FC87E00120FA5120E3E7FF0
:1009850055120F36E4FA900004E075F008A4245BD4
:10099500F582E43400F583E5822AF582E43583F5B2
:1009A50083E0FF120F360AEAB408DB7FBE120F366A
:1009B500120F17900005EFF0120F17A907EFFEE0D1
:1009C5007C002400FFEC3EFE7D19120586A3EEF0A7
:1009D500A3EFF0900006E0FEA3E07802CEC313CEAD
:0409E50013D8F9FF2B
:0109E90022EB
:0B0D3900900089EBF0A3EAF0A3E9F0C2
:100D4400120E3E7F33120F36E4A3F0120F179000F9
:100D540089E0FBA3E0FAA3E0F9A3E0F58275830040
:100D6400EF12056490008CE004F0E0C3940840DBCB
:010D7400225C
:0B1091007F089000737402F0A3DFFCE6
:01109C002231
:1002330078047C007D017BFF7A0C79B47E007F40DB
:100243001204F8E4900045F0FAF9120E3E7FF01222
:100253000F36E4FB120FFD900044EFF000120FFD88
:1002630000E07011EFB4010D74042BF582E4340047
:10027300F583E48016900044E0B40116EF70137424
:10028300042BF582E43400F5837401F0FF12103877
:100293008075C2A1EAFF3395E0FE74732FF5827473
:1002A300003EF583E0FDB40221E4FF12103874042C
:1002B3002BF582E43400F583E4F0EAFF3395E0FEA6
:1002C30074732FF58274003E8038EDB401157F01FD
:1002D30012103874042BF582E43400F5837401F0B2
:1002E3000A8024EAFF3395E0FE74732FF5827400CD
:1002F3003EF583E07011FF12103874042BF582E48D
:100303003400F583E4F00A0BEB6440600302025708
:10031300E4FBEBC3944040030203A2E4FFEB2F246E
:1003230004F582E43400F583E030E042EB13131369
:10033300541FFEE975F008A42463F582E43400F544
:1003430083E5822EF582E43583F583E0FDC313F064
:10035300E975F008A42463F582E43400F583E582AB
:100363002EF582E43583F583E04480F08024EB139B
:100373001313541FFEE975F008A42463F582E434D3
:1003830000F583E5822EF582E43583F583E0FEC331
:1003930013F00FEF6408708574082BFB020315C379
:1003A300EA648094804061EAFF3395E0FE74732F22
:1003B300F58274003EF583E0FF64026048EF70123B
:1003C300EAFF3395E0FE74732FF58274003EF583E4
:1003D300802EEAFF3395E0FE74732FF58274003E9E
:1003E300F583E0B4011FD3EA64809480400F7473F3
:1003F3002FF58274003EF5837402F0800890004567
:100403007401F080031A8097E4FA900045E06401D8
:10041300600909E96402600302024D121091120E91
:040423003EE904FFAB
:0104270022B2
:100AEF00900092EEF0A3EFF07C277D101205981284
:100AFF0010B5900092E0FEA3E0FF7C037DE81205A5
:100B0F00987C007D0A120598AF051210B5900092DF
:100B1F00E0FEA3E0FF7C007D641205987C007D0A57
:100B2F00120598AF051210B57F2E1210A6900092E5
:100B3F00E0FEA3E0FF7C007D0A1205987C007D0A91
:100B4F00120598AF051210B5900092E0FEA3E0FFDA
:0C0B5F007C007D0A120598AF050210B55D
:050B6B00900004EFF012
:100B7000E4A3F0900004E0FFA3E0C39F50687BFF74
:100B80007A0C79A9121025900005E004FF120DB02F
:100B90007BFF7A0C79AD121025E4900006F09000EE
:100BA00006E0FFC39408502D900005E075F008A4FE
:100BB0002463F582E43400F583E5822FF582E43581
:100BC00083F583E0FF120DB07F201210A69000067F
:100BD000E004F080C97BFF7A0C79B11210259000F7
:060BE00005E004F0808D29
:010BE60022EC
:10104900E4F5CF75CDC030000475CED02275CE4001
:011059002274
:0D106A008FCFE5CD30E7FB75CDC0AFCF22B5
:10101100438920759840758DDC858D8BE4F587D2E9
:04102100ACD28E229D
:0810A6008F993099FDC29922D7
:020DB000AE078C
:100DB200EEC4540FFDC36480948AED500424308045
:100DC2000424F62461FF1210A6EE540FFDC36480C2
:100DD200948AED50042430800424F62461FF12101A
:010DE200A66A
:010DE30022ED
:0710B500EF2430FF0210A63A
:1010250012051EFF600C1210A6740129F9E43AFAA4
:0310350080EE2228
:0D0DE40090008DEBF0A3EAF0A3E9F0AE075C
:100DF100E4FDEDC39E501A90008DE0FBA3E0FAA341
:100E0100E0F98D82758300120537FF1210A60D805F
:010E1100E1FF
:010E120022BD
:03002300020006D2
:06000600C0E0C083C082CF
:0F000C0030980CC298C2AF900000E599F0D2AFC7
:07001B00D082D083D0E03257
:100FD400759D01E4F5BDF5BE75BC800000000043BD
:050FE400A204D2AD22C1
:09109D00ED448044084FF5BC222B
:03002B00020CF4D0
:100CF400C0E0C0F0C083C082C0D075D000C000C0C6
:100D040001C002C003C004C005C006C00753BCEF45
:100D1400E5BD5403FFADBE12105AD007D006D0056E
:100D2400D004D003D002D001D000D0D0D082D08360
:050D3400D0F0D0E03218
:100C66004C00570000000000000000000000004C8F
:100C760000490000000000000000000000004100E4
:0C0C860055004100560043004601007B71
:0110BC002211
:0110BD002210
:10083B00900059E0641060030208C3A3E070799044
:10084B00004B7411F0E4A3F0900046E0FBA3E0FA38
:10085B00A3E0F912051E90004DF090000112053730
:10086B0090004EF090000212053790004FF0900070
:10087B0003120537900050F09000041205379000DA
:10088B0051F0900005120537900052F090000612BF
:10089B000537900053F0900007120537900054F085
:1008AB009000497455F0A374AAF07B017A00794942
:1008BB007F0C120BE77F0122900059E0B41107A3C4
:0908CB00E070037F02227F00228D
:0F0C920048007B61616262636300004100830080
:100E66007F01120960AD07AC06EC90007BF0A3EFA2
:100E7600F07F02120960AC06EC90007DF0A3EFF063
:070E8600900083E04440F0FE
:010E8D002242
:10105A0090007FEFF0A3EDF0900083E04480F0224F
:100E1300524F4D4944205365617263682E2E2E0D47
:100E23000A000D0A0076616C696420636D642072A8
:0B0E3300656365697665642E0D0A009A
:070CA100440085616263005D
:0C1077007FB27EE67D0CDDFEDEFADFF6C7
:01108300224A
:0C1084007FD97EAB7D49DDFEDEFADFF691
:01109000223D
:05002600D288D2A822DF
:100A6D00121084438E40120026121011D200121063
:100A7D004912108412077D120F6F120FD4121084B9
:100A8D007BFF7A0E7913121025120233120B6B7B3A
:100A9D00FF7A0E7925121025D2AF900055E060FA3D
:100AAD00E4F0FDFF12109D900083E05480FF33951C
:100ABD00E04F60F3120E66900082E580F0A2B3E481
:100ACD0033900081F012083BBF01CFE4900083F01A
:100ADD00C2A27BFF7A0E7928121025121077D2A2AE
:020AED0080B8CF
:03000300020D7576
:100D7500C0E0C0F0C083C082C0D075D000C000C044
:100D850001C002C003C004C005C006C0071209EABD
:100D9500D007D006D005D004D003D002D001D000B2
:0B0DA500D0D0D082D083D0F0D0E0325C
:030000000208D41F
:0C08D400787FE4F6D8FD75812002091B36
:10042800E709F608DFFA8046E709F208DFFA803EB6
:1004380088828C83E709F0A3DFFA8032E309F608A3
:10044800DFFA8078E309F208DFFA807088828C830B
:10045800E309F0A3DFFA806489828A83E0A3F608BF
:10046800DFFA805889828A83E0A3F208DFFA804C99
:1004780080D280FA80C680D4806980F28033801070
:1004880080A680EA809A80A880DA80E280CA8033D9
:1004980089828A83ECFAE493A3C8C582C8CCC58351
:1004A800CCF0A3C8C582C8CCC583CCDFE9DEE78021
:1004B8000D89828A83E493A3F608DFF9ECFAA9F0A0
:1004C800EDFB2289828A83ECFAE0A3C8C582C8CCF6
:1004D800C583CCF0A3C8C582C8CCC583CCDFEADE0F
:1004E800E880DB89828A83E493A3F208DFF980CC71
:1004F80088F0EF60010E4E60C388F0ED2402B4046A
:100508000050B9F582EB2402B4040050AF23234510
:06051800822390047873B9
:10051E00BB010689828A83E0225002E722BBFE02DB
:09052E00E32289828A83E493220E
:10053700BB010CE58229F582E5833AF583E0225079
:1005470006E92582F8E622BBFE06E92582F8E222C3
:0D055700E58229F582E5833AF583E49322DD
:10056400F8BB010DE58229F582E5833AF583E8F0CD
:10057400225006E92582C8F622BBFE05E92582C879
:02058400F22261
:10058600EF8DF0A4A8F0CF8CF0A428CE8DF0A42E89
:02059600FE2243
:10059800BC000BBE0029EF8DF084FFADF022E4CC47
:1005A800F875F008EF2FFFEE33FEEC33FCEE9DEC10
:1005B800984005FCEE9DFE0FD5F0E9E4CEFD22ED56
:1005C800F8F5F0EE8420D21CFEADF075F008EF2FA0
:1005D800FFED33FD4007985006D5F0F222C398FD91
:0505E8000FD5F0EA222E
:1008E000020A6DE493A3F8E493A34003F68001F2B7
:1008F00008DFF48029E493A3F85407240CC8C33319
:10090000C4540F4420C8834004F456800146F6DFE7
:10091000E4800B0102040810204080900C48E47E23
:10092000019360BCA3FF543F30E509541FFEE493DC
:10093000A360010ECF54C025E060A840B8E493A3A3
:10094000FAE493A3F8E493A3C8C582C8CAC583CACE
:10095000F0A3C8C582C8CAC583CADFE9DEE780BE86
:010CA800004B
:00000001FF
