:10002E00436865636B205349343433322E2E2E0DC4
:10003E000A004445564943455F545950453A2030CD
:10004E007825782E0D0A000D0A0044455649434581
:10005E005F56455253494F4E3A20307825782E0D33
:10006E000A004445564943455F5354415455533A4B
:10007E002061742069646C65206D6F64652E0D0AB5
:10008E00004445564943455F5354415455533A2015
:10009E006174205258206D6F64652E0D0A00444520
:1000AE00564943455F5354415455533A2061742089
:1000BE005458206D6F64652E0D0A00437279737467
:1000CE00616C204F7363696C6C61746F72204C6F3E
:1000DE0061642043617061636974616E63653A2087
:1000EE0025780D0A0053493434333220494F2049C4
:1000FE006E69742E2E2E2E2E2E0D0A00494F20497B
:10010E006E697420636F6D706C657465642E0D0A74
:10011E0000534934343332206973206E6F74206675
:10012E006F756E642E2E2E2E2E2E0D0A0053493410
:10013E00343332204750494F496E697420636F6DD6
:10014E00706C6574652C636F6E6669672064657686
:10015E006963652E2E2E2E2E2E0D0A00436F6E66AF
:10016E0069672052462E2E2E2E2E2E0D0A00534932
:10017E0034343332496E697420636F6D706C6574FC
:10018E00652E0D0A005349343433325F53657420A3
:10019E0052784D6F64652E2E2E2E2E2E0D0A005384
:1001AE0049343433325F5365742054784D6F64652F
:1001BE002E2E2E2E2E2E0D0A005349343433325F3E
:1001CE005365742049646C654D6F64652E2E2E2E1A
:1001DE002E2E0D0A005349343433325F53656E644C
:1001EE00204649464F20646174612E2E2E2E0D0A34
:1001FE00002072657620496E746572727570740D8A
:10020E000A002073656E6420496E74657272757093
:10021E00740D0A006D6F646520726567697374658D
:05022E00723A0D0A0008
:100BC500D3EF9400EE64809480400F7D817C14DC2B
:0A0BD500FEDDFAEF1F70E91E80E656
:010BDF0022F3
:070D3E00C2CAD2CBD2B222DF
:090B4700900050EFF07D017F0EDB
:100B5000900036EDF0C2CBEF4480FF120CEF900016
:090B600036E0FF120CEFD2CB22AB
:070C5B0090004FEFF07F0451
:0C0C6200C2CB120CEF7FFF120CEFD2CBC4
:010C6E002263
:1003D4007BFF7A00792E120CABE4FF120C629000C2
:1003E40031EFF07BFF7A007940120CAB900031E0E2
:1003F400FF120A1A7BFF7A007955120CAB90003178
:10040400E0640860037F01227F01120C62900031D6
:10041400EFF07BFF7A007958120CAB900031E0FFCB
:10042400120A1A7BFF7A007955120CAB7F02120C68
:1004340062900031EFF0540F70087BFF7A007970FE
:100444008022900031E0540FFFBF01087BFF7A0047
:10045400798F8010900031E0540FFFBF02097BFFB9
:100464007A0079AC120CAB7F09120C62900031EF68
:10047400F07BFF7A0079C9120CAB900031E0FF12D7
:0D0484000A1A7BFF7A007955120CAB7F003D
:010491002248
:100233007D537F75120B507D4B7F76120B50E4FD7F
:100243007F77120B507D097F6E120B507DD57F6F28
:10025300120B507D2C7F70120B507D807F58120B38
:10026300507D1F7F6D120B507D207F72120B507DCE
:100273002C7F1C120B507D417F20120B507D607F21
:1002830021120B507D277F22120B507D527F2312A8
:100293000B50E4FD7F24120B507D047F25120B507D
:1002A3007D407F1D120B507D0A7F1E120B507D0F68
:1002B3007F2A120B507D037F1F120B507D607F69D5
:1002C300120B507D0C7F34120B507D2A7F35120B9D
:1002D300507D027F33120B507D2D7F36120B507DE4
:1002E300D47F37120B507D8D7F30120B50E4FD7F8E
:1002F30032120B507D637F71120B507DB47F090264
:020303000B509D
:100492007BFF7A0079F3120CAB120D3E7BFF7A01DF
:1004A200790A120CAB7F147E0080131203D4EF6022
:1004B200127BFF7A01791F120CAB7FF47E01120BC3
:1004C200C580E87DCA7F0B120B507DCA7F0C120BD0
:1004D200507DCA7F0D120B507F0A7E00120BC57B26
:1004E200FF7A01793B120CAB7F03120C62120C5B98
:1004F200900050EFF07D807F07120B507F147E003A
:10050200120BC57F03120C62120C5B900050EFF0CD
:100512007BFF7A01796A120CAB1202337DFF7F05F1
:10052200120B507DFF7F06120B507F03120C6212DA
:100532000C5B900050EFF07D077F05120B50E4FD3D
:0E0542007F06120B507BFF7A01797C020CAB16
:100BE0007F03120C62120C5B120B477D057F07120C
:0B0BF0000B507BFF7A017993020CABE5
:100AFF007F03120C62120C5B900050EFF07D027FAF
:100B0F000E120B507D097F07120B507BFF7A017974
:040B1F00AD020CAB6C
:100BFB007F03120C62120C5B120B477D017F0712F5
:0B0C0B000B507BFF7A0179C7020CAB95
:10085200900032EBF0A3EAF0A3E9F0900031EFF060
:01086200FD98
:100863007F3E120B50E4900035F0900031E0FF9092
:100873000035E0FEC3EF6480F8EE64809850259065
:100883000032E0FBA3E0FAA3E0F9EEFF3395E08F3B
:1008930082F58312031EFD7F7F120B50900035E01B
:1008A30004F080C6120AFF7BFF7A0179E3020CABE6
:100675007F03120C62120C5B900050EFF090004F5C
:10068500E030E15B7BFF7A0179FF120CAB7F4B1207
:100695000C6290002FEFF0BF0C2EE490002EF0902E
:1006A500002FE0FF90002EE0C39F501C7F7F120CAF
:1006B5006290002EE02411F582E43400F583EFF01A
:1006C50090002EE004F080D77D027F08120B50E4E5
:1006D500FD7F08120B50120BE090000F7401F09093
:1006E500004FE030E20C7BFF7A027910120CAB125E
:0206F5000BE018
:0106F70022E0
:100B23007F07120C62900055EFF07BFF7A02792267
:100B3300120CAB900055E0FF120A1A7BFF7A007982
:040B430055020CABA0
:0B0D22004E4F2E003A0D0A000D0A0093
:1008B30048001D000000000000000048002502025F
:0608C30002020202020223
:0100220022BB
:060C2F00C2C37F017E003C
:100C3500EF1FAC0670011E4C600512002280F122E8
:060B6900D2C37F017E00F3
:100B6F00EF1FAC0670011E4C600E12002212002205
:090B7F0012002212002280E8227B
:100C1600D3EF9400EE9400400F7D817C14DCFEDD62
:080C2600FAEF1F70EB1E80E8DD
:010C2E0022A3
:100AAF00E4FDD2C37F01FE120B6FC2C37F647E00D1
:100ABF00120B6FD2C37F0C7E00120B6FA2C3E433F5
:080ACF00FD7F587E00020B6F51
:100C6F00C2C3120B69A2C3E433FD7F047E00120BD3
:030C7F006FAF054F
:010C8200224F
:100CBE00C2C3EF24FF92C37F057E00120B6FD2C317
:010CCE002203
:100B88007B08120C2FEDC313FD120B6930C304ED63
:0E0B98004480FD7F0A7E00120B6FDBE6AF0586
:010BA600222C
:020BA700AD0798
:100BA9007B08120C2FED1392C37F0A7E00120B6F84
:0B0BB900D2C3120C31EDC313FDDBE7CB
:010BC400220E
:05090C00900051EFF026
:10091100E4FAFFFDFC120AAF7FCC120BA77F441251
:100921000BA77FC87E00120C16120AAF7FCC120BE8
:10093100A77FBE120BA7120B88AA07120B88EFFE26
:100941007C00E42AFFEC3EFE7D1912036DAC06AD7E
:0C09510007EF7802CEC313CE13D8F9FFD5
:01095D002277
:0B09A300900045EBF0A3EAF0A3E9F0A0
:1009AE00120AAF7F33120BA7E4A3F0120B8890004C
:1009BE0045E0FBA3E0FAA3E0F9A3E0F5827583001E
:1009CE00EF12034B900048E004F0E0C3940840DBC4
:0109DE0022F6
:0B0D16007F089000257402F0A3DFFCB2
:010D210022AF
:1006F800900053EEF0A3EFF07C277D1012037F12D9
:100708000D45900053E0FEA3E0FF7C037DE8120353
:100718007F7C007D0A12037FAF05120D45900053C0
:10072800E0FEA3E0FF7C007D6412037F7C007D0A6D
:1007380012037FAF05120D457F2E120D3690005320
:10074800E0FEA3E0FF7C007D0A12037F7C007D0AA7
:1007580012037FAF05120D45900053E0FEA3E0FFA2
:0C0768007C007D0A12037FAF05020D45E6
:05077400900049EFF0C8
:10077900E4A3F0900049E0FFA3E0C39F50687BFF2A
:100789007A0D7922120CAB90004AE004FF120A1A82
:100799007BFF7A0D7926120CABE490004BF09000A8
:1007A9004BE0FFC39408502D90004AE075F008A46F
:1007B900241DF582E43400F583E5822FF582E435C2
:1007C90083F583E0FF120A1A7F20120D3690004B41
:1007D900E004F080C97BFF7A0D792A120CAB9000F6
:0607E9004AE004F0808DDF
:0107EF0022E7
:100CCF00E4F5CF75CDC030000475CED02275CE407F
:010CDF0022F2
:0D0CEF008FCFE5CD30E7FB75CDC0AFCF2234
:100C8300438920759840758DDC858D8BE4F587D27B
:040C9300ACD28E222F
:080D36008F993099FDC299224A
:020A1A00AE0725
:100A1C00EEC4540FFDC36480948AED5004243080DE
:100A2C000424F62461FF120D36EE540FFDC36480CE
:100A3C00948AED50042430800424F62461FF120DB6
:010A4C003673
:010A4D002286
:070D4500EF2430FF020D3620
:100CAB00120305FF600C120D36740129F9E43AFAB0
:030CBB0080EE22A6
:0D0A800090004CEBF0A3EAF0A3E9F0AE0704
:100A8D00E4FDEDC39E501A90004CE0FBA3E0FAA3E9
:100A9D00E0F98D8275830012031EFF120D360D8055
:010AAD00E167
:010AAE002225
:03002300020006D2
:06000600C0E0C083C082CF
:0F000C0030980CC298C2AF90002DE599F0D2AF9A
:07001B00D082D083D0E03257
:100C97008F9DE4F5BDF5BE75BC800000000043A242
:040CA70004D2AD22A4
:090D2D00ED448044084FF5BC229E
:03002B0002095E69
:10095E00C0E0C0F0C083C082C0D075D000C000C05F
:10096E0001C002C003C004C005C006C00753BCEFDF
:10097E00E5BD5403FFADBE120A4ED007D006D0051A
:10098E00D004D003D002D001D000D0D0D082D083FA
:05099E00D0F0D0E032B2
:1008C9004C00110000000000000000000000004C76
:1008D90000030000000000000000000000004100CB
:0C08E9000F004100100043000001003728
:010D4C002284
:010D4D002283
:10055000900013E0641060030205D8A3E070799066
:1005600000057411F0E4A3F0900000E0FBA3E0FAB2
:10057000A3E0F9120305900007F090000112031E9A
:10058000900008F090000212031E900009F0900005
:100590000312031E90000AF090000412031E900044
:1005A0000BF090000512031E90000CF09000061254
:1005B000031E90000DF090000712031E90000EF035
:1005C0009000037455F0A374AAF07B017A007903BC
:1005D0007F0C1208527F0122900013E0B41107A390
:0905E000E070037F02227F00227B
:0F0CE00041444320646174613A0D0A000D0A001B
:0F08F500480037FFFFFFFFFFFFFFFF41003F00FD
:100AD7007F0112090CAD07AC06EC900037F0A3EFCD
:100AE700F07F0212090CAC06EC900039F0A3EFF08E
:070AF70090003FE04440F0D5
:010AFE0022D5
:100A4E0090003BEFF0A3EDF07BFF7A0C79E0120CF7
:100A5E00AB90003BE0FF120A1A90003CE0FF120A36
:100A6E001A7BFF7A0C79EC120CAB90003FE04480BD
:020A7E00F02264
:100C450076616C696420636D64207265636569769D
:060C550065642E0D0A008B
:070904004400416162630041
:0C0CFC007FB27EE67D0CDDFEDEFADFF646
:010D080022C8
:0C0D09007FD97EAB7D49DDFEDEFADFF60F
:010D150022BB
:05002600D288D2A822DF
:1007F000120D09438E40120026120C83D200120CF7
:10080000CF120D09120492120BE07F10120C9712F6
:100810000D09D2AF90000FE060FAE4F0FD7F041202
:100820000D2D90003FE05480FF3395E04F60F39032
:10083000003EE580F0120550BF01D9E490003FF082
:10084000C2A27BFF7A0C7945120CAB120CFCD2A22F
:0208500080C264
:030003000209DF10
:1009DF00C0E0C0F0C083C082C0D075D000C000C0DE
:1009EF0001C002C003C004C005C006C007120675CF
:1009FF00D007D006D005D004D003D002D001D0004C
:0B0A0F00D0D0D082D083D0F0D0E032F5
:030000000205E90D
:0C05E900787FE4F6D8FD75812002063012
:10030500BB010689828A83E0225002E722BBFE02F6
:09031500E32289828A83E4932229
:10031E00BB010CE58229F582E5833AF583E0225094
:10032E0006E92582F8E622BBFE06E92582F8E222DE
:0D033E00E58229F582E5833AF583E49322F8
:10034B00F8BB010DE58229F582E5833AF583E8F0E8
:10035B00225006E92582C8F622BBFE05E92582C894
:02036B00F2227C
:10036D00EF8DF0A4A8F0CF8CF0A428CE8DF0A42EA4
:02037D00FE225E
:10037F00BC000BBE0029EF8DF084FFADF022E4CC62
:10038F00F875F008EF2FFFEE33FEEC33FCEE9DEC2B
:10039F00984005FCEE9DFE0FD5F0E9E4CEFD22ED71
:1003AF00F8F5F0EE8420D21CFEADF075F008EF2FBB
:1003BF00FFED33FD4007985006D5F0F222C398FDAC
:0503CF000FD5F0EA2249
:1005F5000207F0E493A3F8E493A34003F68001F225
:1006050008DFF48029E493A3F85407240CC8C33306
:10061500C4540F4420C8834004F456800146F6DFD5
:10062500E4800B01020408102040809008B3E47EAA
:10063500019360BCA3FF543F30E509541FFEE493CA
:10064500A360010ECF54C025E060A840B8E493A391
:10065500FAE493A3F8E493A3C8C582C8CAC583CABC
:10066500F0A3C8C582C8CAC583CADFE9DEE780BE74
:01090B0000EB
:00000001FF
