:10002E00436865636B205349343433322E2E2E0DC4
:10003E000A004445564943455F545950453A2030CD
:10004E007825782E0D0A000D0A0044455649434581
:10005E005F56455253494F4E3A20307825782E0D33
:10006E000A004445564943455F5354415455533A4B
:10007E002061742069646C65206D6F64652E0D0AB5
:10008E00004445564943455F5354415455533A2015
:10009E006174205258206D6F64652E0D0A00444520
:1000AE00564943455F5354415455533A2061742089
:1000BE005458206D6F64652E0D0A00437279737467
:1000CE00616C204F7363696C6C61746F72204C6F3E
:1000DE0061642043617061636974616E63653A2087
:1000EE0025780D0A0053493434333220494F2049C4
:1000FE006E69742E2E2E2E2E2E0D0A00494F20497B
:10010E006E697420636F6D706C657465642E0D0A74
:10011E0000534934343332206973206E6F74206675
:10012E006F756E642E2E2E2E2E2E0D0A0053493410
:10013E00343332204750494F496E697420636F6DD6
:10014E00706C6574652C636F6E6669672064657686
:10015E006963652E2E2E2E2E2E0D0A00436F6E66AF
:10016E0069672052462E2E2E2E2E2E0D0A00534932
:10017E0034343332496E697420636F6D706C6574FC
:10018E00652E0D0A005349343433325F53657420A3
:10019E0052784D6F64652E2E2E2E2E2E0D0A005384
:1001AE0049343433325F5365742054784D6F64652F
:1001BE002E2E2E2E2E2E0D0A005349343433325F3E
:1001CE005365742049646C654D6F64652E2E2E2E1A
:1001DE002E2E0D0A005349343433325F53656E644C
:1001EE00204649464F20646174612E2E2E2E0D0A34
:1001FE00006D6F646520696E204953523A0D0A00F6
:10020E00496E74657272757074206F636375656480
:10021E000D0A002072657620496E746572727570D3
:10022E00740D0A002073656E6420496E74657272D7
:10023E007570740D0A006D6F646520726567697361
:07024E007465723A0D0A000D
:100BC600D3EF9400EE64809480400F7D817C14DC2A
:0A0BD600FEDDFAEF1F70E91E80E655
:010BE00022F2
:070D2B00C2CAD2CBD2B222F2
:090B2C00900046EFF07D017F0E00
:100B350090002FEDF0C2CBEF4480FF120CDB90004C
:090B45002FE0FF120CDBD2CB22E1
:070C5B00900045EFF07F045B
:0C0C6200C2CB120CDB7FFF120CDBD2CBEC
:010C6E002263
:1004BF007BFF7A00792E120C97E4FF120C629000EA
:1004CF002FEFF07BFF7A007940120C9790002FE00E
:1004DF00FF120A2F7BFF7A007955120C9790002F8D
:1004EF00E0640860037F01227F01120C6290002FED
:1004FF00EFF07BFF7A007958120C9790002FE0FFF6
:10050F00120A2F7BFF7A007955120C977F02120C7B
:10051F006290002FEFF0540F70087BFF7A00797014
:10052F00802290002FE0540FFFBF01087BFF7A005D
:10053F00798F801090002FE0540FFFBF02097BFFCF
:10054F007A0079AC120C977F09120C6290002FEF92
:10055F00F07BFF7A0079C9120C9790002FE0FF1201
:0D056F000A2F7BFF7A007955120C977F0050
:01057C00225C
:100255007D537F75120B357D4B7F76120B35E4FD93
:100265007F77120B357D097F6E120B357DD57F6F3C
:10027500120B357D2C7F70120B357D807F58120B4C
:10028500357D1F7F6D120B357D207F72120B357DFD
:100295002C7F1C120B357D417F20120B357D607F35
:1002A50021120B357D277F22120B357D527F2312BC
:1002B5000B35E4FD7F24120B357D047F25120B35AC
:1002C5007D407F1D120B357D0A7F1E120B357D0F7C
:1002D5007F2A120B357D037F1F120B357D607F69E9
:1002E500120B357D0C7F34120B357D2A7F35120BB1
:1002F500357D027F33120B357D2D7F36120B357D13
:10030500D47F37120B357D8D7F30120B35E4FD7FA1
:1003150032120B357D637F71120B357DB47F090277
:020325000B3596
:10057D007BFF7A0079F3120C97120D2B7BFF7A011A
:10058D00790A120C977F147E0080131204BFEF605E
:10059D00127BFF7A01791F120C977FF47E01120BEB
:1005AD00C680E87DCA7F0B120B357DCA7F0C120BFE
:1005BD00357DCA7F0D120B357F0A7E00120BC67B6F
:1005CD00FF7A01793B120C977F03120C62120C5BC0
:1005DD00900046EFF07D807F07120B357F147E0073
:1005ED00120BC67F03120C62120C5B900046EFF0EB
:1005FD007BFF7A01796A120C971202557DFF7F05F8
:10060D00120B357DFF7F06120B357F03120C621224
:10061D000C5B900046EFF07D077F05120B35E4FD76
:0E062D007F06120B357BFF7A01797C020C9759
:100BE1007F03120C62120C5B120B2C7D057F071226
:0B0BF1000B357BFF7A017993020C9713
:100AE4007F03120C62120C5B900046EFF07D027FD4
:100AF4000E120B357D097F07120B357BFF7A0179C6
:040B0400AD020C979B
:100BFC007F03120C62120C5B120B2C7D017F07120F
:0B0C0C000B357BFF7A0179C7020C97C3
:1007C500900032EBF0A3EAF0A3E9F0900031EFF0EE
:0107D500FD26
:1007D6007F3E120B35E4900035F0900031E0FF903B
:1007E6000035E0FEC3EF6480F8EE648098502590F3
:1007F6000032E0FBA3E0FAA3E0F9EEFF3395E08FC9
:1008060082F583120340FD7F7F120B35900035E0A1
:1008160004F080C6120AE47BFF7A0179E3020C97A2
:1003F6007F07120C6290002CEFF07BFF7A0179FFE9
:10040600120C9790002CE0FF120A2F7BFF7A0079DE
:1004160055120C977F03120C62120C5B900046EF8C
:10042600F07BFF7A02790E120C97900045E0FF12DE
:100436000A2F900046E0FF120A2F7BFF7A007955BB
:10044600120C97900045E030E15B7BFF7A02792140
:10045600120C977F4B120C6290002DEFF0BF0C2E02
:10046600E490002CF090002DE0FF90002CE0C39F5C
:10047600501C7F7F120C6290002CE02411F582E460
:100486003400F583EFF090002CE004F080D77D0275
:100496007F08120B35E4FD7F08120B35120BE19035
:1004A600000F7401F0900045E030E20C7BFF7A0209
:0804B6007932120C97120BE1E0
:0104BE00221B
:100B08007F07120C62900047EFF07BFF7A0279446E
:100B1800120C97900047E0FF120A2F7BFF7A0079AA
:040B280055020C97CF
:0B09670048001D020202020202020210
:0100220022BB
:060C3000C2C37F017E003B
:100C3600EF1FAC0670011E4C600512002280F122E7
:060B4E00D2C37F017E000E
:100B5400EF1FAC0670011E4C600E12002212002220
:090B640012002212002280E82296
:100C1700D3EF9400EE9400400F7D817C14DCFEDD61
:080C2700FAEF1F70EB1E80E8DC
:010C2F0022A2
:100ABC00E4FDD2C37F01FE120B54C2C37F647E00DF
:100ACC00120B54D2C37F0C7E00120B54A2C3E4331E
:080ADC00FD7F587E00020B545F
:100C6F00C2C3120B4EA2C3E433FD7F047E00120BEE
:030C7F0054AF056A
:010C8200224F
:100CAA00C2C3EF24FF92C37F057E00120B54D2C346
:010CBA002217
:100B6D007B08120C30EDC313FD120B4E30C304ED98
:0E0B7D004480FD7F0A7E00120B54DBE6AF05BC
:010B8B002247
:020B8C00AD07B3
:100B8E007B08120C30ED1392C37F0A7E00120B54B9
:0B0B9E00D2C3120C32EDC313FDDBE7E5
:010BA9002229
:05087C0090002FEFF0D9
:10088100E4FAFFFDFC120ABC7FCC120B8C7F4412F0
:100891000B8C7FC87E00120C17120ABC7FCC120B86
:1008A1008C7FBE120B8C120B6DAA07120B6DEFFE23
:1008B1007C00E42AFFEC3EFE7D1912038FAC06ADED
:0C08C10007EF7802CEC313CE13D8F9FF66
:0108CD002208
:0B09F30090003BEBF0A3EAF0A3E9F05A
:1009FE00120ABC7F33120B8CE4A3F0120B6D900025
:100A0E003BE0FBA3E0FAA3E0F9A3E0F582758300D7
:100A1E00EF12036D90003EE004F0E0C3940840DB5B
:010A2E0022A5
:0B0D02007F0890001D7402F0A3DFFCCE
:010D0D0022C3
:1007490090002FEEF0A3EFF07C277D101203A11289
:100759000D3290002FE0FEA3E0FF7C037DE8120339
:10076900A17C007D0A1203A1AF05120D3290002F62
:10077900E0FEA3E0FF7C007D641203A17C007D0AFA
:100789001203A1AF05120D327F2E120D2390002FF7
:10079900E0FEA3E0FF7C007D0A1203A17C007D0A34
:1007A9001203A1AF05120D3290002FE0FEA3E0FF66
:0C07B9007C007D0A1203A1AF05020D3286
:0508260090003FEFF01F
:10082B00E4A3F090003FE0FFA3E0C39F5042E4A39A
:10083B00F0900041E0FFC39408502D900040E0750C
:10084B00F008A42400F582E43400F583E5822FF54B
:10085B0082E43583F583E0FF120A2F7F20120D23EC
:10086B00900041E004F080C9900040E004F080B3B8
:01087B00225A
:100CBB00E4F5CF75CDC030000475CED02275CE4093
:010CCB002206
:0D0CDB008FCFE5CD30E7FB75CDC0AFCF2248
:100C8300438920759840758DDC858D8BE4F587D27B
:040C9300ACD28E222F
:080D23008F993099FDC299225D
:020A2F00AE0710
:100A3100EEC4540FFDC36480948AED5004243080C9
:100A41000424F62461FF120D23EE540FFDC36480CC
:100A5100948AED50042430800424F62461FF120DA1
:010A61002371
:010A62002271
:070D3200EF2430FF020D2346
:100C9700120327FF600C120D23740129F9E43AFAB5
:030CA70080EE22BA
:0D0A6300900042EBF0A3EAF0A3E9F0AE072B
:100A7000E4FDEDC39E501A900042E0FBA3E0FAA310
:100A8000E0F98D82758300120340FF120D230D8063
:010A9000E184
:010A91002242
:03002300020006D2
:06000600C0E0C083C082CF
:0F000C0030980CC298C2AF90002BE599F0D2AF9C
:07001B00D082D083D0E03257
:0C0D0E0041444320646174613A0D0A0006
:100C4600759D01E4F5BDF5BE75BC8000000000434E
:050C5600A204D2AD2252
:090D1A00ED448044084FF5BC22B1
:03002B000208CEFA
:1008CE00C0E0C0F0C083C082C0D075D000C000C0F0
:1008DE0001C002C003C004C005C006C00753BCEF70
:1008EE007BFF7A0D790E120C97E5BD5403FFADBE5A
:1008FE00120A92D007D006D005D004D003D002D071
:0E090E0001D000D0D0D082D083D0F0D0E03223
:100972004C00110000000000000000000000004CCC
:100982000003000000000000000000000000410021
:0C0992000F004100100043000001002590
:010D3F002291
:010D40002290
:1006C700900013E064107069A3E0706590000574F2
:1006D70011F0E4A3F0900000E0FBA3E0FAA3E0F937
:1006E700120327900007F0900001120340900008C2
:1006F700F0900002120340900009F09000031203EB
:100707004090000AF090000412034090000BF09014
:10071700000512034090000CF09000037455F0A3FD
:1007270074AAF07B017A0079037F0C1207C57F0159
:1007370022900013E0B41107A3E070037F02227F29
:0207470000228E
:0F0CCC0041444320646174613A0D0A000D0A002F
:09099E0046002561616262636399
:100A9200900027EFF0A3EDF07BFF7A0C79CC120CDB
:100AA20097900027E0FF120A2F900028E0FF120A19
:0A0AB2002F7BFF7A0C79D8020C9715
:100BAA0074656D703A0D0A000D0A004953522063AC
:0C0BBA006F6D706C657465642E0D0A0090
:0709A70044003761626300A8
:0C0CE8007FB27EE67D0CDDFEDEFADFF65A
:010CF40022DD
:0C0CF5007FD97EAB7D49DDFEDEFADFF624
:010D010022CF
:05002600D288D2A822DF
:060D3900E4F596F5952299
:10091C00120CF5438E40120026120C83D200120CDE
:10092C00BB120CF512057D120BE1120C46D2AFE492
:10093C00FDFF120D1A120CF57BFF7A0B79AA120C23
:10094C00977F0112087C1207497BFF7A0B79B21250
:0B095C000C97C2A6120CF5D2A680D4A6
:030003000209AF40
:1009AF00C0E0C0F0C083C082C0D075D000C000C00E
:1009BF0001C002C003C004C005C006C0071203F681
:1009CF007BFF7A0B79B5120C97D007D006D005D0E4
:1009DF0004D003D002D001D000D0D0D082D083D0A9
:0409EF00F0D0E03232
:0300000002063BBA
:0C063B00787FE4F6D8FD7581200206826D
:10032700BB010689828A83E0225002E722BBFE02D4
:09033700E32289828A83E4932207
:10034000BB010CE58229F582E5833AF583E0225072
:1003500006E92582F8E622BBFE06E92582F8E222BC
:0D036000E58229F582E5833AF583E49322D6
:10036D00F8BB010DE58229F582E5833AF583E8F0C6
:10037D00225006E92582C8F622BBFE05E92582C872
:02038D00F2225A
:10038F00EF8DF0A4A8F0CF8CF0A428CE8DF0A42E82
:02039F00FE223C
:1003A100BC000BBE0029EF8DF084FFADF022E4CC40
:1003B100F875F008EF2FFFEE33FEEC33FCEE9DEC09
:1003C100984005FCEE9DFE0FD5F0E9E4CEFD22ED4F
:1003D100F8F5F0EE8420D21CFEADF075F008EF2F99
:1003E100FFED33FD4007985006D5F0F222C398FD8A
:0503F1000FD5F0EA2227
:1006470002091CE493A3F8E493A34003F68001F2A4
:1006570008DFF48029E493A3F85407240CC8C333B4
:10066700C4540F4420C8834004F456800146F6DF83
:10067700E4800B0102040810204080900967E47EA3
:10068700019360BCA3FF543F30E509541FFEE49378
:10069700A360010ECF54C025E060A840B8E493A33F
:1006A700FAE493A3F8E493A3C8C582C8CAC583CA6A
:1006B700F0A3C8C582C8CAC583CADFE9DEE780BE22
:0109AE000048
:00000001FF
