:10002E00436865636B205349343433322E2E2E0DC4
:10003E000A004445564943455F545950453A2030CD
:10004E007825782E0D0A000D0A0044455649434581
:10005E005F56455253494F4E3A20307825782E0D33
:10006E000A004445564943455F5354415455533A4B
:10007E002061742069646C65206D6F64652E0D0AB5
:10008E00004445564943455F5354415455533A2015
:10009E006174205258206D6F64652E0D0A00444520
:1000AE00564943455F5354415455533A2061742089
:1000BE005458206D6F64652E0D0A00437279737467
:1000CE00616C204F7363696C6C61746F72204C6F3E
:1000DE0061642043617061636974616E63653A2087
:1000EE0025780D0A0053493434333220494F2049C4
:1000FE006E69742E2E2E2E2E2E0D0A00494F20497B
:10010E006E697420636F6D706C657465642E0D0A74
:10011E0000534934343332206973206E6F74206675
:10012E006F756E642E2E2E2E2E2E0D0A0053493410
:10013E00343332204750494F496E697420636F6DD6
:10014E00706C6574652C636F6E6669672064657686
:10015E006963652E2E2E2E2E2E0D0A00436F6E66AF
:10016E0069672052462E2E2E2E2E2E0D0A00534932
:10017E0034343332496E697420636F6D706C6574FC
:10018E00652E0D0A005349343433325F53657420A3
:10019E0052784D6F64652E2E2E2E2E2E0D0A005384
:1001AE0049343433325F5365742054784D6F64652F
:1001BE002E2E2E2E2E2E0D0A005349343433325F3E
:1001CE005365742049646C654D6F64652E2E2E2E1A
:1001DE002E2E0D0A005349343433325F53656E644C
:1001EE00204649464F20646174612E2E2E2E0D0A34
:1001FE00002072657620496E746572727570740D8A
:10020E000A002073656E6420496E74657272757093
:10021E00740D0A006D6F646520726567697374658D
:05022E00723A0D0A0008
:100F8500D3EF9400EE64809480400F7D817C14DC67
:0A0F9500FEDDFAEF1F70E91E80E692
:010F9F00222F
:0710DE00C2CAD2CBD2B2223C
:090F0700900091EFF07D017F0ED6
:100F1000900009EDF0C2CBEF4480FF12109A9000D0
:090F200009E0FF12109AD2CB2265
:07101A00900090EFF07F044D
:0C102100C2CB12109A7FFF12109AD2CBA3
:01102D0022A0
:1006BE007BFF7A00792E121056E4FF121021900063
:1006CE0004EFF07BFF7A007940121056900004E0A0
:1006DE00FF120DAF7BFF7A00795512105690000471
:1006EE00E0640860037F01227F0112102190000454
:1006FE00EFF07BFF7A007958121056900004E0FF5D
:10070E00120DAF7BFF7A0079551210567F02121030
:10071E0021900004EFF0540F70087BFF7A0079707F
:10072E008022900004E0540FFFBF01087BFF7A0087
:10073E00798F8010900004E0540FFFBF02097BFFF9
:10074E007A0079AC1210567F09121021900004EF36
:10075E00F07BFF7A0079C9121056900004E0FF1268
:0D076E000DAF7BFF7A0079551210567F0009
:01077B00225B
:1005EC007D537F75120F107D4B7F76120F10E4FD3B
:1005FC007F77120F107D097F6E120F107DD57F6FE4
:10060C00120F107D2C7F70120F107D807F58120FEF
:10061C00107D1F7F6D120F107D207F72120F107DC9
:10062C002C7F1C120F107D417F20120F107D607FDC
:10063C0021120F107D277F22120F107D527F231263
:10064C000F10E4FD7F24120F107D047F25120F1074
:10065C007D407F1D120F107D0A7F1E120F107D0F23
:10066C007F2A120F107D037F1F120F107D607F6990
:10067C00120F107D0C7F34120F107D2A7F35120F54
:10068C00107D027F33120F107D2D7F36120F107DDF
:10069C00D47F37120F107D8D7F30120F10E4FD7F49
:1006AC0032120F107D637F71120F107DB47F09021F
:0206BC000F101D
:10077C007BFF7A0079F31210561210DE7BFF7A01A0
:10078C00790A1210567F147E0080131206BEEF6099
:10079C00127BFF7A01791F1210567FF47E01120F23
:1007AC008580E87DCA7F0B120F107DCA7F0C120F5B
:1007BC00107DCA7F0D120F107F0A7E00120F857BF1
:1007CC00FF7A01793B1210567F0312102112101A76
:1007DC00900091EFF07D807F07120F107F147E0048
:1007EC00120F857F0312102112101A900091EFF056
:1007FC007BFF7A01796A1210561205EC7DFF7F059A
:10080C00120F107DFF7F06120F107F0312102112A2
:10081C00101A900091EFF07D077F05120F10E4FD88
:0E082C007F06120F107BFF7A01797C021056B6
:100FA0007F0312102112101A120F077D057F0712FE
:0B0FB0000F107BFF7A017993021056AE
:100EBF007F0312102112101A900091EFF07D027F24
:100ECF000E120F107D097F07120F107BFF7A017929
:040EDF00AD021056FA
:100FBB007F0312102112101A120F077D017F0712E7
:0B0FCB000F107BFF7A0179C70210565F
:100BE600900005EBF0A3EAF0A3E9F0900004EFF023
:010BF600FD01
:100BF7007F3E120F10E4900008F0900004E0FF9091
:100C07000008E0FEC3EF6480F8EE648098502590FA
:100C17000005E0FBA3E0FAA3E0F9EEFF3395E08FD0
:100C270082F583120536FD7F7F120F10900008E0D2
:100C370004F080C6120EBF7BFF7A0179E3021056DB
:1009E9007F0312102112101A900091EFF0900090DD
:1009F900E030E15B7BFF7A0179FF1210567F4B12E1
:100A09001021900002EFF0BF0C2EE4900001F0904D
:100A19000002E0FF900001E0C39F501C7F7F12108D
:100A290021900001E02457F582E43400F583EFF0CA
:100A3900900001E004F080D77D027F08120F10E4D6
:100A4900FD7F08120F10120FA09000557401F0904D
:100A59000090E030E20C7BFF7A02791012105612F6
:020A69000FA0DC
:010A6B002268
:100EE3007F07121021900094EFF07BFF7A027922A2
:100EF300121056900094E0FF120DAF7BFF7A007939
:040F0300550210562D
:100CA8004E4F2E003A0D0A000D0A00000000000009
:100CB800000000000000000000000000000000002C
:100CC800000000000000000000000000000000001C
:100CD800000000000000000000000000000000000C
:0B0CE800000000000000000000000001
:100C470050006328258F060400007028FF53C60153
:0E0C57001503F94800730202020202020202B3
:0100220022BB
:060FEF00C2C37F017E0079
:100FF500EF1FAC0670011E4C600512002280F12225
:060F2900D2C37F017E002F
:100F2F00EF1FAC0670011E4C600E12002212002241
:090F3F0012002212002280E822B7
:100FD600D3EF9400EE9400400F7D817C14DCFEDD9F
:080FE600FAEF1F70EB1E80E81A
:010FEE0022E0
:100E6F00E4FDD2C37F01FE120F2FC2C37F647E0049
:100E7F00120F2FD2C37F0C7E00120F2FA2C3E433A9
:080E8F00FD7F587E00020F2FC9
:10102E00C2C3120F29A2C3E433FD7F047E00120F48
:03103E002FAF05CC
:01104100228C
:10106900C2C3EF24FF92C37F057E00120F2FD2C3A4
:011079002254
:100F48007B08120FEFEDC313FD120F2930C304ED18
:0E0F58004480FD7F0A7E00120F2FDBE6AF05FE
:010F66002268
:020F6700AD07D4
:100F69007B08120FEFED1392C37F0A7E00120F2F39
:0B0F7900D2C3120FF1EDC313FDDBE744
:010F8400224A
:05095F00900004EFF020
:10096400E4A3F0F9A3F0A3F0120E6F7FCC120F678B
:100974007F44120F677FC87E00120FD6120E6F7F5E
:1009840055120F67E4FA900004E075F008A4245BA4
:10099400F582E43400F583E5822AF582E43583F5B3
:1009A40083E0FF120F670AEAB408DB7FBE120F6709
:1009B400120F48900005EFF0120F48A907EFFEE070
:1009C4007C002400FFEC3EFE7D19120585A3EEF0A9
:1009D400A3EFF0900006E0FEA3E07802CEC313CEAE
:0409E40013D8F9FF2C
:0109E80022EC
:0B0D3800900089EBF0A3EAF0A3E9F0C3
:100D4300120E6F7F33120F67E4A3F0120F48900067
:100D530089E0FBA3E0FAA3E0F9A3E0F58275830041
:100D6300EF12056390008CE004F0E0C3940840DBCD
:010D7300225D
:0B10C1007F089000737402F0A3DFFCB6
:0110CC002201
:1002330078047C007D017BFF7A0C79B37E007F40DC
:100243001204F7E4900045F0FAF9120E6F7FF012F2
:100253000F67E4FB12102E900044EFF00012102EF3
:1002630000E07011EFB4010D74042BF582E4340047
:10027300F583E48016900044E0B40116EF70137424
:10028300042BF582E43400F5837401F0FF12106946
:100293008075C2A1EAFF3395E0FE74732FF5827473
:1002A300003EF583E0FDB40221E4FF1210697404FB
:1002B3002BF582E43400F583E4F0EAFF3395E0FEA6
:1002C30074732FF58274003E8038EDB401157F01FD
:1002D30012106974042BF582E43400F5837401F081
:1002E3000A8024EAFF3395E0FE74732FF5827400CD
:1002F3003EF583E07011FF12106974042BF582E45C
:100303003400F583E4F00A0BEB6440600302025708
:10031300E4FBEBC3944040030203A2E4FFEB2F246E
:1003230004F582E43400F583E030E042EB13131369
:10033300541FFEE975F008A42463F582E43400F544
:1003430083E5822EF582E43583F583E0FDC313F064
:10035300E975F008A42463F582E43400F583E582AB
:100363002EF582E43583F583E04480F08024EB139B
:100373001313541FFEE975F008A42463F582E434D3
:1003830000F583E5822EF582E43583F583E0FEC331
:1003930013F00FEF6408708574082BFB020315C379
:1003A300EA648094804061EAFF3395E0FE74732F22
:1003B300F58274003EF583E0FF64026048EF70123B
:1003C300EAFF3395E0FE74732FF58274003EF583E4
:1003D300802EEAFF3395E0FE74732FF58274003E9E
:1003E300F583E0B4011FD3EA64809480400F7473F3
:1003F3002FF58274003EF5837402F0800890004567
:100403007401F080031A8097E4FA900045E06401D8
:10041300600909E96402600302024D1210C1120E61
:030423006FAF01B7
:0104260022B3
:100AEE00900092EEF0A3EFF07C277D101205971286
:100AFE0010E5900092E0FEA3E0FF7C037DE8120576
:100B0E00977C007D0A120597AF051210E5900092B2
:100B1E00E0FEA3E0FF7C007D641205977C007D0A59
:100B2E00120597AF051210E57F2E1210D690009287
:100B3E00E0FEA3E0FF7C007D0A1205977C007D0A93
:100B4E00120597AF051210E5900092E0FEA3E0FFAC
:0C0B5E007C007D0A120597AF050210E52F
:050B6A00900004EFF013
:100B6F00E4A3F0900004E0FFA3E0C39F50687BFF75
:100B7F007A0C79A8121056900005E004FF120DAF01
:100B8F007BFF7A0C79AC121056E4900006F09000BF
:100B9F0006E0FFC39408502D900005E075F008A4FF
:100BAF002463F582E43400F583E5822FF582E43582
:100BBF0083F583E0FF120DAF7F201210D690000651
:100BCF00E004F080C97BFF7A0C79B01210569000C8
:060BDF0005E004F0808D2A
:010BE50022ED
:10107A00E4F5CF75CDC030000475CED02275CE40D0
:01108A002243
:0D109A008FCFE5CD30E7FB75CDC0AFCF2285
:10104200438920759840758DDC858D8BE4F587D2B8
:04105200ACD28E226C
:0810D6008F993099FDC29922A7
:020DAF00AE078D
:100DB100EEC4540FFDC36480948AED500424308046
:100DC1000424F62461FF1210D6EE540FFDC3648093
:100DD100948AED50042430800424F62461FF12101B
:010DE100D63B
:010DE20022EE
:0710E500EF2430FF0210D6DA
:1010560012051DFF600C1210D6740129F9E43AFA44
:0310660080EE22F7
:0D0E150090008DEBF0A3EAF0A3E9F0AE072A
:100E2200E4FDEDC39E501A90008DE0FBA3E0FAA30F
:100E3200E0F98D82758300120536FF1210D60D80FF
:010E4200E1CE
:010E4300228C
:03002300020006D2
:06000600C0E0C083C082CF
:0F000C0030980CC298C2AF900000E599F0D2AFC7
:07001B00D082D083D0E03257
:10100500759D01E4F5BDF5BE75BC8000000000438B
:05101500A204D2AD228F
:0910CD00ED448044084FF5BC22FB
:03002B00020CF3D1
:100CF300C0E0C0F0C083C082C0D075D000C000C0C7
:100D030001C002C003C004C005C006C00753BCEF46
:100D1300E5BD5403FFADBE120DE3D007D006D005E9
:100D2300D004D003D002D001D000D0D0D082D08361
:050D3300D0F0D0E03219
:100C65004C00570000000000000000000000004C90
:100C750000490000000000000000000000004100E5
:0C0C850055004100560043004601007B72
:0110EC0022E1
:0110ED0022E0
:10083A00900059E0641060030208C2A3E070799046
:10084A00004B7411F0E4A3F0900046E0FBA3E0FA39
:10085A00A3E0F912051D90004DF090000112053633
:10086A0090004EF090000212053690004FF0900072
:10087A0003120536900050F09000041205369000DD
:10088A0051F0900005120536900052F090000612C1
:10089A000536900053F0900007120536900054F088
:1008AA009000497455F0A374AAF07B017A00794943
:1008BA007F0C120BE67F0122900059E0B41107A3C6
:0908CA00E070037F02227F00228E
:0F108B0041444320646174613A0D0A000D0A006C
:0F0C910048007B61616262636300004100830081
:100E97007F0112095FAD07AC06EC90007BF0A3EF72
:100EA700F07F0212095FAC06EC90007DF0A3EFF033
:070EB700900083E04440F0CD
:010EBE002211
:100DE30090007FEFF0A3EDF07BFF7A10798B121068
:100DF3005690007FE0FF120DAF900080E0FF120DD0
:100E0300AF7BFF7A107997121056900083E04480ED
:020E1300F022CB
:100E4400524F4D4944205365617263682E2E2E0D16
:100E54000A000D0A0076616C696420636D64207277
:0B0E6400656365697665642E0D0A0069
:070CA000440085616263005E
:0C10A7007FB27EE67D0CDDFEDEFADFF697
:0110B300221A
:0C10B4007FD97EAB7D49DDFEDEFADFF661
:0110C000220D
:05002600D288D2A822DF
:100A6C001210B4438E40120026121042D200121003
:100A7C007A1210B412077C120FA01210051210B4C7
:100A8C007BFF7A0E7944121056120233120B6A7BDA
:100A9C00FF7A0E7956121056D2AF900055E060FADC
:100AAC00E4F0FDFF1210CD900083E05480FF3395ED
:100ABC00E04F60F3120E97900082E580F0A2B3E451
:100ACC0033900081F012083ABF01CFE4900083F01C
:100ADC00C2A27BFF7A0E79591210561210A7D2A21D
:020AEC0080B8D0
:03000300020D7477
:100D7400C0E0C0F0C083C082C0D075D000C000C045
:100D840001C002C003C004C005C006C0071209E9BF
:100D9400D007D006D005D004D003D002D001D000B3
:0B0DA400D0D0D082D083D0F0D0E0325D
:030000000208D320
:0C08D300787FE4F6D8FD75812002091A38
:10042700E709F608DFFA8046E709F208DFFA803EB7
:1004370088828C83E709F0A3DFFA8032E309F608A4
:10044700DFFA8078E309F208DFFA807088828C830C
:10045700E309F0A3DFFA806489828A83E0A3F608C0
:10046700DFFA805889828A83E0A3F208DFFA804C9A
:1004770080D280FA80C680D4806980F28033801071
:1004870080A680EA809A80A880DA80E280CA8033DA
:1004970089828A83ECFAE493A3C8C582C8CCC58352
:1004A700CCF0A3C8C582C8CCC583CCDFE9DEE78022
:1004B7000D89828A83E493A3F608DFF9ECFAA9F0A1
:1004C700EDFB2289828A83ECFAE0A3C8C582C8CCF7
:1004D700C583CCF0A3C8C582C8CCC583CCDFEADE10
:1004E700E880DB89828A83E493A3F208DFF980CC72
:1004F70088F0EF60010E4E60C388F0ED2402B4046B
:100507000050B9F582EB2402B4040050AF23234511
:06051700822390047773BB
:10051D00BB010689828A83E0225002E722BBFE02DC
:09052D00E32289828A83E493220F
:10053600BB010CE58229F582E5833AF583E022507A
:1005460006E92582F8E622BBFE06E92582F8E222C4
:0D055600E58229F582E5833AF583E49322DE
:10056300F8BB010DE58229F582E5833AF583E8F0CE
:10057300225006E92582C8F622BBFE05E92582C87A
:02058300F22262
:10058500EF8DF0A4A8F0CF8CF0A428CE8DF0A42E8A
:02059500FE2244
:10059700BC000BBE0029EF8DF084FFADF022E4CC48
:1005A700F875F008EF2FFFEE33FEEC33FCEE9DEC11
:1005B700984005FCEE9DFE0FD5F0E9E4CEFD22ED57
:1005C700F8F5F0EE8420D21CFEADF075F008EF2FA1
:1005D700FFED33FD4007985006D5F0F222C398FD92
:0505E7000FD5F0EA222F
:1008DF00020A6CE493A3F8E493A34003F68001F2B9
:1008EF0008DFF48029E493A3F85407240CC8C3331A
:1008FF00C4540F4420C8834004F456800146F6DFE9
:10090F00E4800B0102040810204080900C47E47E25
:10091F00019360BCA3FF543F30E509541FFEE493DD
:10092F00A360010ECF54C025E060A840B8E493A3A4
:10093F00FAE493A3F8E493A3C8C582C8CAC583CACF
:10094F00F0A3C8C582C8CAC583CADFE9DEE780BE87
:010CA700004C
:00000001FF
